{
  "contractName": "SafeBet",
  "abi": [
    {
      "inputs": [
        {
          "internalType": "address",
          "name": "tokenAddress",
          "type": "address"
        }
      ],
      "stateMutability": "nonpayable",
      "type": "constructor"
    },
    {
      "anonymous": false,
      "inputs": [
        {
          "indexed": false,
          "internalType": "address",
          "name": "account",
          "type": "address"
        }
      ],
      "name": "Paused",
      "type": "event"
    },
    {
      "anonymous": false,
      "inputs": [
        {
          "indexed": true,
          "internalType": "bytes32",
          "name": "role",
          "type": "bytes32"
        },
        {
          "indexed": true,
          "internalType": "bytes32",
          "name": "previousAdminRole",
          "type": "bytes32"
        },
        {
          "indexed": true,
          "internalType": "bytes32",
          "name": "newAdminRole",
          "type": "bytes32"
        }
      ],
      "name": "RoleAdminChanged",
      "type": "event"
    },
    {
      "anonymous": false,
      "inputs": [
        {
          "indexed": true,
          "internalType": "bytes32",
          "name": "role",
          "type": "bytes32"
        },
        {
          "indexed": true,
          "internalType": "address",
          "name": "account",
          "type": "address"
        },
        {
          "indexed": true,
          "internalType": "address",
          "name": "sender",
          "type": "address"
        }
      ],
      "name": "RoleGranted",
      "type": "event"
    },
    {
      "anonymous": false,
      "inputs": [
        {
          "indexed": true,
          "internalType": "bytes32",
          "name": "role",
          "type": "bytes32"
        },
        {
          "indexed": true,
          "internalType": "address",
          "name": "account",
          "type": "address"
        },
        {
          "indexed": true,
          "internalType": "address",
          "name": "sender",
          "type": "address"
        }
      ],
      "name": "RoleRevoked",
      "type": "event"
    },
    {
      "anonymous": false,
      "inputs": [
        {
          "indexed": false,
          "internalType": "address",
          "name": "account",
          "type": "address"
        }
      ],
      "name": "Unpaused",
      "type": "event"
    },
    {
      "inputs": [],
      "name": "ADMIN_ROLE",
      "outputs": [
        {
          "internalType": "bytes32",
          "name": "",
          "type": "bytes32"
        }
      ],
      "stateMutability": "view",
      "type": "function",
      "constant": true
    },
    {
      "inputs": [],
      "name": "DEFAULT_ADMIN_ROLE",
      "outputs": [
        {
          "internalType": "bytes32",
          "name": "",
          "type": "bytes32"
        }
      ],
      "stateMutability": "view",
      "type": "function",
      "constant": true
    },
    {
      "inputs": [],
      "name": "REFEREE_ROLE",
      "outputs": [
        {
          "internalType": "bytes32",
          "name": "",
          "type": "bytes32"
        }
      ],
      "stateMutability": "view",
      "type": "function",
      "constant": true
    },
    {
      "inputs": [
        {
          "internalType": "bytes32",
          "name": "role",
          "type": "bytes32"
        }
      ],
      "name": "getRoleAdmin",
      "outputs": [
        {
          "internalType": "bytes32",
          "name": "",
          "type": "bytes32"
        }
      ],
      "stateMutability": "view",
      "type": "function",
      "constant": true
    },
    {
      "inputs": [
        {
          "internalType": "bytes32",
          "name": "role",
          "type": "bytes32"
        },
        {
          "internalType": "address",
          "name": "account",
          "type": "address"
        }
      ],
      "name": "grantRole",
      "outputs": [],
      "stateMutability": "nonpayable",
      "type": "function"
    },
    {
      "inputs": [
        {
          "internalType": "bytes32",
          "name": "role",
          "type": "bytes32"
        },
        {
          "internalType": "address",
          "name": "account",
          "type": "address"
        }
      ],
      "name": "hasRole",
      "outputs": [
        {
          "internalType": "bool",
          "name": "",
          "type": "bool"
        }
      ],
      "stateMutability": "view",
      "type": "function",
      "constant": true
    },
    {
      "inputs": [],
      "name": "paused",
      "outputs": [
        {
          "internalType": "bool",
          "name": "",
          "type": "bool"
        }
      ],
      "stateMutability": "view",
      "type": "function",
      "constant": true
    },
    {
      "inputs": [
        {
          "internalType": "bytes4",
          "name": "interfaceId",
          "type": "bytes4"
        }
      ],
      "name": "supportsInterface",
      "outputs": [
        {
          "internalType": "bool",
          "name": "",
          "type": "bool"
        }
      ],
      "stateMutability": "view",
      "type": "function",
      "constant": true
    },
    {
      "inputs": [],
      "name": "token",
      "outputs": [
        {
          "internalType": "contract IERC20",
          "name": "",
          "type": "address"
        }
      ],
      "stateMutability": "view",
      "type": "function",
      "constant": true
    },
    {
      "inputs": [],
      "name": "version",
      "outputs": [
        {
          "internalType": "string",
          "name": "",
          "type": "string"
        }
      ],
      "stateMutability": "pure",
      "type": "function",
      "constant": true
    },
    {
      "inputs": [],
      "name": "getTokenBalance",
      "outputs": [
        {
          "internalType": "uint256",
          "name": "",
          "type": "uint256"
        }
      ],
      "stateMutability": "view",
      "type": "function",
      "constant": true
    },
    {
      "inputs": [
        {
          "internalType": "address",
          "name": "account",
          "type": "address"
        }
      ],
      "name": "addReferee",
      "outputs": [
        {
          "internalType": "bool",
          "name": "",
          "type": "bool"
        }
      ],
      "stateMutability": "nonpayable",
      "type": "function"
    },
    {
      "inputs": [
        {
          "internalType": "address",
          "name": "account",
          "type": "address"
        }
      ],
      "name": "addAdmin",
      "outputs": [
        {
          "internalType": "bool",
          "name": "",
          "type": "bool"
        }
      ],
      "stateMutability": "nonpayable",
      "type": "function"
    },
    {
      "inputs": [
        {
          "internalType": "address",
          "name": "account",
          "type": "address"
        }
      ],
      "name": "delAdmin",
      "outputs": [
        {
          "internalType": "bool",
          "name": "",
          "type": "bool"
        }
      ],
      "stateMutability": "nonpayable",
      "type": "function"
    },
    {
      "inputs": [
        {
          "internalType": "bytes32",
          "name": "role",
          "type": "bytes32"
        },
        {
          "internalType": "address",
          "name": "account",
          "type": "address"
        }
      ],
      "name": "renounceRole",
      "outputs": [],
      "stateMutability": "nonpayable",
      "type": "function"
    },
    {
      "inputs": [
        {
          "internalType": "bytes32",
          "name": "role",
          "type": "bytes32"
        },
        {
          "internalType": "address",
          "name": "account",
          "type": "address"
        }
      ],
      "name": "revokeRole",
      "outputs": [],
      "stateMutability": "nonpayable",
      "type": "function"
    },
    {
      "inputs": [],
      "name": "pause",
      "outputs": [],
      "stateMutability": "nonpayable",
      "type": "function"
    },
    {
      "inputs": [],
      "name": "unpause",
      "outputs": [],
      "stateMutability": "nonpayable",
      "type": "function"
    }
  ],
  "bytecode": "0x60806040523480156200001157600080fd5b506040516200201b3803806200201b83398181016040528101906200003791906200024d565b6000600160006101000a81548160ff021916908315150217905550620000766000801b6200006a620000bd60201b60201c565b620000c560201b60201c565b806001806101000a81548173ffffffffffffffffffffffffffffffffffffffff021916908373ffffffffffffffffffffffffffffffffffffffff16021790555050620002c7565b600033905090565b620000d78282620000db60201b60201c565b5050565b620000ed8282620001cc60201b60201c565b620001c857600160008084815260200190815260200160002060000160008373ffffffffffffffffffffffffffffffffffffffff1673ffffffffffffffffffffffffffffffffffffffff16815260200190815260200160002060006101000a81548160ff0219169083151502179055506200016d620000bd60201b60201c565b73ffffffffffffffffffffffffffffffffffffffff168173ffffffffffffffffffffffffffffffffffffffff16837f2f8788117e7eff1d82e926ec794901d17c78024a50270940304540a733656f0d60405160405180910390a45b5050565b600080600084815260200190815260200160002060000160008373ffffffffffffffffffffffffffffffffffffffff1673ffffffffffffffffffffffffffffffffffffffff16815260200190815260200160002060009054906101000a900460ff16905092915050565b6000815190506200024781620002ad565b92915050565b6000602082840312156200026057600080fd5b6000620002708482850162000236565b91505092915050565b600062000286826200028d565b9050919050565b600073ffffffffffffffffffffffffffffffffffffffff82169050919050565b620002b88162000279565b8114620002c457600080fd5b50565b611d4480620002d76000396000f3fe608060405234801561001057600080fd5b50600436106101165760003560e01c806375b238fc116100a2578063a217fddf11610071578063a217fddf146102cf578063a7039843146102ed578063af74bc141461031d578063d547741f1461033b578063fc0c546a1461035757610116565b806375b238fc1461025957806382b2e257146102775780638456cb591461029557806391d148541461029f57610116565b80633f4ba83a116100e95780633f4ba83a146101b357806354fd4d50146101bd5780635c975abb146101db57806362d91855146101f9578063704802751461022957610116565b806301ffc9a71461011b578063248a9ca31461014b5780632f2ff15d1461017b57806336568abe14610197575b600080fd5b61013560048036038101906101309190611426565b610375565b60405161014291906118ce565b60405180910390f35b610165600480360381019061016091906113c1565b6103ef565b60405161017291906118e9565b60405180910390f35b610195600480360381019061019091906113ea565b61040e565b005b6101b160048036038101906101ac91906113ea565b610437565b005b6101bb610500565b005b6101c561055d565b6040516101d2919061191f565b60405180910390f35b6101e361059a565b6040516101f091906118ce565b60405180910390f35b610213600480360381019061020e9190611398565b6105b1565b60405161022091906118ce565b60405180910390f35b610243600480360381019061023e9190611398565b610681565b60405161025091906118ce565b60405180910390f35b6102616107bb565b60405161026e91906118e9565b60405180910390f35b61027f6107df565b60405161028c9190611a81565b60405180910390f35b61029d61088f565b005b6102b960048036038101906102b491906113ea565b6108ec565b6040516102c691906118ce565b60405180910390f35b6102d7610956565b6040516102e491906118e9565b60405180910390f35b61030760048036038101906103029190611398565b61095d565b60405161031491906118ce565b60405180910390f35b610325610a97565b60405161033291906118e9565b60405180910390f35b610355600480360381019061035091906113ea565b610abb565b005b61035f610b66565b60405161036c9190611904565b60405180910390f35b60007f7965db0b000000000000000000000000000000000000000000000000000000007bffffffffffffffffffffffffffffffffffffffffffffffffffffffff1916827bffffffffffffffffffffffffffffffffffffffffffffffffffffffff191614806103e857506103e782610b8a565b5b9050919050565b6000806000838152602001908152602001600020600101549050919050565b610417826103ef565b61042881610423610bf4565b610bfc565b6104328383610c99565b505050565b6000801b82141561047d576040517f08c379a000000000000000000000000000000000000000000000000000000000815260040161047490611981565b60405180910390fd5b610485610bf4565b73ffffffffffffffffffffffffffffffffffffffff168173ffffffffffffffffffffffffffffffffffffffff16146104f2576040517f08c379a00000000000000000000000000000000000000000000000000000000081526004016104e9906119a1565b60405180910390fd5b6104fc8282610d79565b5050565b6105146000801b61050f610bf4565b6108ec565b610553576040517f08c379a000000000000000000000000000000000000000000000000000000000815260040161054a90611a41565b60405180910390fd5b61055b610dfc565b565b60606040518060400160405280600281526020017f7630000000000000000000000000000000000000000000000000000000000000815250905090565b6000600160009054906101000a900460ff16905090565b60006105c76000801b6105c2610bf4565b6108ec565b610606576040517f08c379a00000000000000000000000000000000000000000000000000000000081526004016105fd90611a41565b60405180910390fd5b61060e61059a565b1561064e576040517f08c379a0000000000000000000000000000000000000000000000000000000008152600401610645906119e1565b60405180910390fd5b6106787fa49807205ce4d355092ef5a8a18f56e8913cf4a201fbe287825b095693c2177583610abb565b60019050919050565b60006106976000801b610692610bf4565b6108ec565b6106d6576040517f08c379a00000000000000000000000000000000000000000000000000000000081526004016106cd90611a41565b60405180910390fd5b6106de61059a565b1561071e576040517f08c379a0000000000000000000000000000000000000000000000000000000008152600401610715906119e1565b60405180910390fd5b6107487faef88082b8671e875d97d0d6c81d06fb9e76f97b3ad7523a55a378e5298aeeee836108ec565b15610788576040517f08c379a000000000000000000000000000000000000000000000000000000000815260040161077f90611a21565b60405180910390fd5b6107b27fa49807205ce4d355092ef5a8a18f56e8913cf4a201fbe287825b095693c217758361040e565b60019050919050565b7fa49807205ce4d355092ef5a8a18f56e8913cf4a201fbe287825b095693c2177581565b600060018054906101000a900473ffffffffffffffffffffffffffffffffffffffff1673ffffffffffffffffffffffffffffffffffffffff166370a08231306040518263ffffffff1660e01b815260040161083a91906118b3565b60206040518083038186803b15801561085257600080fd5b505afa158015610866573d6000803e3d6000fd5b505050506040513d601f19601f8201168201806040525081019061088a919061144f565b905090565b6108a36000801b61089e610bf4565b6108ec565b6108e2576040517f08c379a00000000000000000000000000000000000000000000000000000000081526004016108d990611a41565b60405180910390fd5b6108ea610e9e565b565b600080600084815260200190815260200160002060000160008373ffffffffffffffffffffffffffffffffffffffff1673ffffffffffffffffffffffffffffffffffffffff16815260200190815260200160002060009054906101000a900460ff16905092915050565b6000801b81565b60006109736000801b61096e610bf4565b6108ec565b6109b2576040517f08c379a00000000000000000000000000000000000000000000000000000000081526004016109a990611a41565b60405180910390fd5b6109ba61059a565b156109fa576040517f08c379a00000000000000000000000000000000000000000000000000000000081526004016109f1906119e1565b60405180910390fd5b610a247fa49807205ce4d355092ef5a8a18f56e8913cf4a201fbe287825b095693c21775836108ec565b15610a64576040517f08c379a0000000000000000000000000000000000000000000000000000000008152600401610a5b90611a01565b60405180910390fd5b610a8e7faef88082b8671e875d97d0d6c81d06fb9e76f97b3ad7523a55a378e5298aeeee8361040e565b60019050919050565b7faef88082b8671e875d97d0d6c81d06fb9e76f97b3ad7523a55a378e5298aeeee81565b610ac4826103ef565b610ad581610ad0610bf4565b610bfc565b6000801b831415610b5757610ae8610bf4565b73ffffffffffffffffffffffffffffffffffffffff168273ffffffffffffffffffffffffffffffffffffffff161415610b56576040517f08c379a0000000000000000000000000000000000000000000000000000000008152600401610b4d906119c1565b60405180910390fd5b5b610b618383610f40565b505050565b60018054906101000a900473ffffffffffffffffffffffffffffffffffffffff1681565b60007f01ffc9a7000000000000000000000000000000000000000000000000000000007bffffffffffffffffffffffffffffffffffffffffffffffffffffffff1916827bffffffffffffffffffffffffffffffffffffffffffffffffffffffff1916149050919050565b600033905090565b610c0682826108ec565b610c9557610c2b8173ffffffffffffffffffffffffffffffffffffffff166014610f69565b610c398360001c6020610f69565b604051602001610c4a929190611879565b6040516020818303038152906040526040517f08c379a0000000000000000000000000000000000000000000000000000000008152600401610c8c919061191f565b60405180910390fd5b5050565b610ca382826108ec565b610d7557600160008084815260200190815260200160002060000160008373ffffffffffffffffffffffffffffffffffffffff1673ffffffffffffffffffffffffffffffffffffffff16815260200190815260200160002060006101000a81548160ff021916908315150217905550610d1a610bf4565b73ffffffffffffffffffffffffffffffffffffffff168173ffffffffffffffffffffffffffffffffffffffff16837f2f8788117e7eff1d82e926ec794901d17c78024a50270940304540a733656f0d60405160405180910390a45b5050565b610d81610bf4565b73ffffffffffffffffffffffffffffffffffffffff168173ffffffffffffffffffffffffffffffffffffffff1614610dee576040517f08c379a0000000000000000000000000000000000000000000000000000000008152600401610de590611a61565b60405180910390fd5b610df88282611263565b5050565b610e0461059a565b610e43576040517f08c379a0000000000000000000000000000000000000000000000000000000008152600401610e3a90611961565b60405180910390fd5b6000600160006101000a81548160ff0219169083151502179055507f5db9ee0a495bf2e6ff9c91a7834c1ba4fdd244a5e8aa4e537bd38aeae4b073aa610e87610bf4565b604051610e9491906118b3565b60405180910390a1565b610ea661059a565b15610ee6576040517f08c379a0000000000000000000000000000000000000000000000000000000008152600401610edd906119e1565b60405180910390fd5b60018060006101000a81548160ff0219169083151502179055507f62e78cea01bee320cd4e420270b5ea74000d11b0c9f74754ebdbfc544b05a258610f29610bf4565b604051610f3691906118b3565b60405180910390a1565b610f49826103ef565b610f5a81610f55610bf4565b610bfc565b610f648383611263565b505050565b606060006002836002610f7c9190611b19565b610f869190611ac3565b67ffffffffffffffff811115610fc5577f4e487b7100000000000000000000000000000000000000000000000000000000600052604160045260246000fd5b6040519080825280601f01601f191660200182016040528015610ff75781602001600182028036833780820191505090505b5090507f300000000000000000000000000000000000000000000000000000000000000081600081518110611055577f4e487b7100000000000000000000000000000000000000000000000000000000600052603260045260246000fd5b60200101907effffffffffffffffffffffffffffffffffffffffffffffffffffffffffffff1916908160001a9053507f7800000000000000000000000000000000000000000000000000000000000000816001815181106110df577f4e487b7100000000000000000000000000000000000000000000000000000000600052603260045260246000fd5b60200101907effffffffffffffffffffffffffffffffffffffffffffffffffffffffffffff1916908160001a9053506000600184600261111f9190611b19565b6111299190611ac3565b90505b6001811115611215577f3031323334353637383961626364656600000000000000000000000000000000600f861660108110611191577f4e487b7100000000000000000000000000000000000000000000000000000000600052603260045260246000fd5b1a60f81b8282815181106111ce577f4e487b7100000000000000000000000000000000000000000000000000000000600052603260045260246000fd5b60200101907effffffffffffffffffffffffffffffffffffffffffffffffffffffffffffff1916908160001a905350600485901c94508061120e90611c48565b905061112c565b5060008414611259576040517f08c379a000000000000000000000000000000000000000000000000000000000815260040161125090611941565b60405180910390fd5b8091505092915050565b61126d82826108ec565b1561134057600080600084815260200190815260200160002060000160008373ffffffffffffffffffffffffffffffffffffffff1673ffffffffffffffffffffffffffffffffffffffff16815260200190815260200160002060006101000a81548160ff0219169083151502179055506112e5610bf4565b73ffffffffffffffffffffffffffffffffffffffff168173ffffffffffffffffffffffffffffffffffffffff16837ff6391f5c32d9c69d2a47ea670b442974b53935d1edc7fd64eb21e047a839171b60405160405180910390a45b5050565b60008135905061135381611cb2565b92915050565b60008135905061136881611cc9565b92915050565b60008135905061137d81611ce0565b92915050565b60008151905061139281611cf7565b92915050565b6000602082840312156113aa57600080fd5b60006113b884828501611344565b91505092915050565b6000602082840312156113d357600080fd5b60006113e184828501611359565b91505092915050565b600080604083850312156113fd57600080fd5b600061140b85828601611359565b925050602061141c85828601611344565b9150509250929050565b60006020828403121561143857600080fd5b60006114468482850161136e565b91505092915050565b60006020828403121561146157600080fd5b600061146f84828501611383565b91505092915050565b61148181611b73565b82525050565b61149081611b85565b82525050565b61149f81611b91565b82525050565b6114ae81611bf1565b82525050565b60006114bf82611a9c565b6114c98185611aa7565b93506114d9818560208601611c15565b6114e281611ca1565b840191505092915050565b60006114f882611a9c565b6115028185611ab8565b9350611512818560208601611c15565b80840191505092915050565b600061152b602083611aa7565b91507f537472696e67733a20686578206c656e67746820696e73756666696369656e746000830152602082019050919050565b600061156b601483611aa7565b91507f5061757361626c653a206e6f74207061757365640000000000000000000000006000830152602082019050919050565b60006115ab601b83611aa7565b91507f63616e206e6f742072656e6f756e636520726f6c65206f776e657200000000006000830152602082019050919050565b60006115eb602083611aa7565b91507f63616e206f6e6c792072656e6f756e636520726f6c657320666f722073656c666000830152602082019050919050565b600061162b602583611aa7565b91507f63616e206e6f74207265766f6b6520796f757273656c6620696e20726f6c652060008301527f6f776e65720000000000000000000000000000000000000000000000000000006020830152604082019050919050565b6000611691601083611aa7565b91507f5061757361626c653a20706175736564000000000000000000000000000000006000830152602082019050919050565b60006116d1600883611aa7565b91507f69732061646d696e0000000000000000000000000000000000000000000000006000830152602082019050919050565b6000611711601783611ab8565b91507f416363657373436f6e74726f6c3a206163636f756e74200000000000000000006000830152601782019050919050565b6000611751600a83611aa7565b91507f69732072656665726565000000000000000000000000000000000000000000006000830152602082019050919050565b6000611791600983611aa7565b91507f6e6f74206f776e657200000000000000000000000000000000000000000000006000830152602082019050919050565b60006117d1601183611ab8565b91507f206973206d697373696e6720726f6c65200000000000000000000000000000006000830152601182019050919050565b6000611811602f83611aa7565b91507f416363657373436f6e74726f6c3a2063616e206f6e6c792072656e6f756e636560008301527f20726f6c657320666f722073656c6600000000000000000000000000000000006020830152604082019050919050565b61187381611be7565b82525050565b600061188482611704565b915061189082856114ed565b915061189b826117c4565b91506118a782846114ed565b91508190509392505050565b60006020820190506118c86000830184611478565b92915050565b60006020820190506118e36000830184611487565b92915050565b60006020820190506118fe6000830184611496565b92915050565b600060208201905061191960008301846114a5565b92915050565b6000602082019050818103600083015261193981846114b4565b905092915050565b6000602082019050818103600083015261195a8161151e565b9050919050565b6000602082019050818103600083015261197a8161155e565b9050919050565b6000602082019050818103600083015261199a8161159e565b9050919050565b600060208201905081810360008301526119ba816115de565b9050919050565b600060208201905081810360008301526119da8161161e565b9050919050565b600060208201905081810360008301526119fa81611684565b9050919050565b60006020820190508181036000830152611a1a816116c4565b9050919050565b60006020820190508181036000830152611a3a81611744565b9050919050565b60006020820190508181036000830152611a5a81611784565b9050919050565b60006020820190508181036000830152611a7a81611804565b9050919050565b6000602082019050611a96600083018461186a565b92915050565b600081519050919050565b600082825260208201905092915050565b600081905092915050565b6000611ace82611be7565b9150611ad983611be7565b9250827fffffffffffffffffffffffffffffffffffffffffffffffffffffffffffffffff03821115611b0e57611b0d611c72565b5b828201905092915050565b6000611b2482611be7565b9150611b2f83611be7565b9250817fffffffffffffffffffffffffffffffffffffffffffffffffffffffffffffffff0483118215151615611b6857611b67611c72565b5b828202905092915050565b6000611b7e82611bc7565b9050919050565b60008115159050919050565b6000819050919050565b60007fffffffff0000000000000000000000000000000000000000000000000000000082169050919050565b600073ffffffffffffffffffffffffffffffffffffffff82169050919050565b6000819050919050565b6000611bfc82611c03565b9050919050565b6000611c0e82611bc7565b9050919050565b60005b83811015611c33578082015181840152602081019050611c18565b83811115611c42576000848401525b50505050565b6000611c5382611be7565b91506000821415611c6757611c66611c72565b5b600182039050919050565b7f4e487b7100000000000000000000000000000000000000000000000000000000600052601160045260246000fd5b6000601f19601f8301169050919050565b611cbb81611b73565b8114611cc657600080fd5b50565b611cd281611b91565b8114611cdd57600080fd5b50565b611ce981611b9b565b8114611cf457600080fd5b50565b611d0081611be7565b8114611d0b57600080fd5b5056fea2646970667358221220240cd7b458f74dc087fbe6848d960340e41e96cadaa2a441247b2a3cc9b31a5e64736f6c63430008000033",
  "immutableReferences": {},
  "source": "// SPDX-License-Identifier: MIT\npragma solidity ^0.8.0;\n\n\n/// @title SafeBet\n/// @author Bruno Pedrazza\n\n// AccessControl.sol :  https://github.com/OpenZeppelin/openzeppelin-contracts/blob/v4.1.0/contracts/access/AccessControl.sol\n// Pausable.sol :       https://github.com/OpenZeppelin/openzeppelin-contracts/blob/v4.1.0/contracts/security/Pausable.sol\nimport \"@openzeppelin/contracts/token/ERC20/ERC20.sol\";\nimport \"@openzeppelin/contracts/access/AccessControl.sol\";\nimport \"@openzeppelin/contracts/security/Pausable.sol\";\nimport \"./ISafeBet.sol\";\n\nstruct BetOption {\n    string name;\n    uint32 id;\n}\n\n/**\n * @dev SafeBet\n *\n * Author: Bruno Pedrazza\n *\n * It uses [Open Zeppelin Contracts]\n * (https://github.com/OpenZeppelin/openzeppelin-contracts/blob/v4.1.0/)\n *\n */\ncontract SafeBet is AccessControl, ISafeBet, Pausable {\n  address private constant ZERO_ADDRESS = address(0);\n  bytes32 private constant NULL_HASH = bytes32(0);\n\n  bytes32 public constant REFEREE_ROLE = keccak256(\"REFEREE_ROLE\");\n  bytes32 public constant ADMIN_ROLE = keccak256(\"ADMIN_ROLE\");\n\n  IERC20 public token;\n\n  /**\n   * @dev Function called only when the smart contract is deployed.\n   *\n   * Parameters:\n   * - address tokenAddress - address of the token to be used to bet and receive claims\n   *\n   * Actions:\n   * - the transaction's sender will be added in the DEFAULT_ADMIN_ROLE.\n   * - the token will be defined by the parameter tokenAddress\n   */\n  constructor(address tokenAddress) {\n    _setupRole(DEFAULT_ADMIN_ROLE, _msgSender());\n    token = IERC20(tokenAddress);\n  }\n\n  /**\n   * @dev Modifier which verifies if the caller is an owner,\n   * it means he has the role `DEFAULT_ADMIN_ROLE`.\n   *\n   * The role `DEFAULT_ADMIN_ROLE` is defined by Open Zeppelin's AccessControl smart contract.\n   *\n   * By default (setted in the constructor) the account which deployed this smart contract is in this role.\n   *\n   * This owner can add / remove other owners.\n   */\n  modifier onlyOwner() {\n    require(hasRole(DEFAULT_ADMIN_ROLE, _msgSender()), \"not owner\");\n    _;\n  }\n\n  /**\n   * @dev Modifier which verifies if the caller is a referee,\n   * it means he has the role `REFEREE_ROLE`.\n   *\n   * Role REFEREE are referred to its `bytes32` identifier,\n   * defined in the `public constant` called REFEREE_ROLE.\n   * It should be exposed in the external API and be unique.\n   *\n   * Role REFEREE is used to define which bet option is the winner one.\n   * This role is responsible for enabling the user's claims.\n   */\n  modifier onlyReferee() {\n    require(hasRole(REFEREE_ROLE, _msgSender()), \"not referee\");\n    _;\n  }\n\n  /**\n   * @dev Modifier which verifies if the caller is a admin,\n   * it means he has the role `ADMIN_ROLE`.\n   *\n   * Role ADMIN are referred to its `bytes32` identifier,\n   * defined in the `public constant` called ADMIN_ROLE.\n   * It should be exposed in the external API and be unique.\n   *\n   * Role ADMIN is used to add/remove bet options.\n   */\n  modifier onlyAdmin() {\n    require(hasRole(ADMIN_ROLE, _msgSender()), \"not admin\");\n    _;\n  }\n\n  /**\n   * @dev Function which returns the safebet's contract version.\n   *\n   * This is a fixed value define in source code.\n   *\n   * Parameters: none\n   *\n   * Returns: string\n   */\n  function version() external pure override returns (string memory) {\n    return \"v0\";\n  }\n\n  /**\n   * @dev Private function to compare two strings\n   * and returns `true` if the strings are equal,\n   * otherwise it returns false.\n   *\n   * Parameters: stringA, stringB\n   *\n   * Returns: bool\n   */\n  function compareStrings(string memory a, string memory b)\n    private\n    pure\n    returns (bool)\n  {\n    return (keccak256(abi.encodePacked((a))) == keccak256(abi.encodePacked((b))));\n  }\n\n  /**\n   * @dev Returns token balance.\n   *\n   * Parameters: none\n   *\n   * Returns: integer amount of tokens in this contract\n   *\n   */\n  function getTokenBalance() external view override returns (uint256) {\n    return token.balanceOf(address(this));\n  }\n\n  /**\n   * @dev This function add an address in the `REFEREE_ROLE`.\n   *\n   * Only owner can call it.\n   *\n   * Can not be called if the contract is paused.\n   * This role can not be revoked by the owner.\n   *\n   * Parameters: address of referee to be added\n   *\n   * Returns: bool - true if it is sucessful\n   *\n   */\n  function addReferee(address account)\n    external\n    onlyOwner\n    whenNotPaused\n    returns (bool)\n  {\n    require(!hasRole(ADMIN_ROLE, account), \"is admin\");\n    grantRole(REFEREE_ROLE, account);\n    return true;\n  }\n\n  /**\n   * @dev This function add an address in the `ADMIN_ROLE`.\n   *\n   * Only owner can call it.\n   *\n   * Can not be called if the contract is paused.\n   *\n   * Parameters: address of admin to be added\n   *\n   * Returns: bool - true if it is sucessful\n   *\n   */\n  function addAdmin(address account)\n    external\n    onlyOwner\n    whenNotPaused\n    returns (bool)\n  {\n    require(!hasRole(REFEREE_ROLE, account), \"is referee\");\n    grantRole(ADMIN_ROLE, account);\n    return true;\n  }\n\n  /**\n   * @dev This function excludes an address in the `ADMIN_ROLE`.\n   *\n   * Only owner can call it.\n   *\n   * Can not be called if the contract is paused.\n   *\n   * Parameters: address of admin to be excluded\n   *\n   * Returns: bool - true if it is sucessful\n   *\n   */\n  function delAdmin(address account)\n    external\n    onlyOwner\n    whenNotPaused\n    returns (bool)\n  {\n    //Can be called only by the account defined in constructor: DEFAULT_ADMIN_ROLE\n    revokeRole(ADMIN_ROLE, account);\n    return true;\n  }\n\n  /**\n   * @dev This function allows a user to renounce a role\n   *\n   * Parameters: bytes32 role, address account\n   *\n   * Returns: none\n   *\n   * Requirements:\n   *\n   * - An owner can not renounce the role DEFAULT_ADMIN_ROLE.\n   * - Can only renounce roles for your own account.\n   *\n   */\n  function renounceRole(bytes32 role, address account) public virtual override {\n    require(role != DEFAULT_ADMIN_ROLE, \"can not renounce role owner\");\n    require(account == _msgSender(), \"can only renounce roles for self\");\n    super.renounceRole(role, account);\n  }\n\n  /**\n   * @dev This function allows to revoke a role\n   *\n   * Parameters: bytes32 role, address account\n   *\n   * Returns: none\n   *\n   * Requirements:\n   *\n   * - An owner can not revoke yourself in the role DEFAULT_ADMIN_ROLE.\n   *\n   */\n  function revokeRole(bytes32 role, address account)\n    public\n    virtual\n    override\n    onlyRole(getRoleAdmin(role))\n  {\n    if (role == DEFAULT_ADMIN_ROLE) {\n      require(account != _msgSender(), \"can not revoke yourself in role owner\");\n    }\n    super.revokeRole(role, account);\n  }\n\n  /**\n   * @dev This function pauses the contract.\n   *\n   * Only owner can call it.\n   *\n   * Parameters: none\n   *\n   * Returns: none\n   *\n   * Requirements:\n   *\n   * - The contract must not be paused.\n   *\n   */\n  function pause() external onlyOwner {\n    /**\n     * @dev See {Pausable-_pause}.\n     *\n     * Requirements:\n     *\n     * - The contract must not be paused.\n     */\n    _pause();\n  }\n\n  /**\n   * @dev This function unpauses the contract.\n   *\n   * Only owner can call it.\n   *\n   * Parameters: none\n   *\n   * Returns: none\n   *\n   * Requirements:\n   *\n   * - The contract must be paused.\n   */\n  function unpause() external onlyOwner {\n    /**\n     * @dev See {Pausable-_unpause}.\n     *\n     * Requirements:\n     *\n     * - The contract must be paused.\n     */\n    _unpause();\n  }\n}\n",
  "sourcePath": "/Users/pedrazza/code/mystuff/safebet-web3/web3/contracts/SafeBet.sol",
  "compiler": {
    "name": "solc",
    "version": "0.8.0+commit.c7dfd78e.Emscripten.clang"
  },
  "schemaVersion": "3.4.6",
  "updatedAt": "2022-04-09T23:40:21.907Z",
  "networkType": "ethereum",
  "devdoc": {
    "details": "SafeBet Author: Bruno Pedrazza It uses [Open Zeppelin Contracts] (https://github.com/OpenZeppelin/openzeppelin-contracts/blob/v4.1.0/)",
    "kind": "dev",
    "methods": {
      "addAdmin(address)": {
        "details": "This function add an address in the `ADMIN_ROLE`. Only owner can call it. Can not be called if the contract is paused. Parameters: address of admin to be added Returns: bool - true if it is sucessful"
      },
      "addReferee(address)": {
        "details": "This function add an address in the `REFEREE_ROLE`. Only owner can call it. Can not be called if the contract is paused. This role can not be revoked by the owner. Parameters: address of referee to be added Returns: bool - true if it is sucessful"
      },
      "constructor": {
        "details": "Function called only when the smart contract is deployed. Parameters: - address tokenAddress - address of the token to be used to bet and receive claims Actions: - the transaction's sender will be added in the DEFAULT_ADMIN_ROLE. - the token will be defined by the parameter tokenAddress"
      },
      "delAdmin(address)": {
        "details": "This function excludes an address in the `ADMIN_ROLE`. Only owner can call it. Can not be called if the contract is paused. Parameters: address of admin to be excluded Returns: bool - true if it is sucessful"
      },
      "getRoleAdmin(bytes32)": {
        "details": "Returns the admin role that controls `role`. See {grantRole} and {revokeRole}. To change a role's admin, use {_setRoleAdmin}."
      },
      "getTokenBalance()": {
        "details": "Returns token balance. Parameters: none Returns: integer amount of tokens in this contract"
      },
      "grantRole(bytes32,address)": {
        "details": "Grants `role` to `account`. If `account` had not been already granted `role`, emits a {RoleGranted} event. Requirements: - the caller must have ``role``'s admin role."
      },
      "hasRole(bytes32,address)": {
        "details": "Returns `true` if `account` has been granted `role`."
      },
      "pause()": {
        "details": "This function pauses the contract. Only owner can call it. Parameters: none Returns: none Requirements: - The contract must not be paused."
      },
      "paused()": {
        "details": "Returns true if the contract is paused, and false otherwise."
      },
      "renounceRole(bytes32,address)": {
        "details": "This function allows a user to renounce a role Parameters: bytes32 role, address account Returns: none Requirements: - An owner can not renounce the role DEFAULT_ADMIN_ROLE. - Can only renounce roles for your own account."
      },
      "revokeRole(bytes32,address)": {
        "details": "This function allows to revoke a role Parameters: bytes32 role, address account Returns: none Requirements: - An owner can not revoke yourself in the role DEFAULT_ADMIN_ROLE."
      },
      "supportsInterface(bytes4)": {
        "details": "See {IERC165-supportsInterface}."
      },
      "unpause()": {
        "details": "This function unpauses the contract. Only owner can call it. Parameters: none Returns: none Requirements: - The contract must be paused."
      },
      "version()": {
        "details": "Function which returns the safebet's contract version. This is a fixed value define in source code. Parameters: none Returns: string"
      }
    },
    "version": 1
  },
  "userdoc": {
    "kind": "user",
    "methods": {},
    "version": 1
  }
}