{
  "contractName": "SafeBet",
  "abi": [
    {
      "inputs": [
        {
          "internalType": "address",
          "name": "tokenAddress",
          "type": "address"
        },
        {
          "internalType": "uint256",
          "name": "feePercentageOwnerParam",
          "type": "uint256"
        }
      ],
      "stateMutability": "nonpayable",
      "type": "constructor"
    },
    {
      "anonymous": false,
      "inputs": [
        {
          "indexed": true,
          "internalType": "bytes32",
          "name": "role",
          "type": "bytes32"
        },
        {
          "indexed": true,
          "internalType": "bytes32",
          "name": "previousAdminRole",
          "type": "bytes32"
        },
        {
          "indexed": true,
          "internalType": "bytes32",
          "name": "newAdminRole",
          "type": "bytes32"
        }
      ],
      "name": "RoleAdminChanged",
      "type": "event"
    },
    {
      "anonymous": false,
      "inputs": [
        {
          "indexed": true,
          "internalType": "bytes32",
          "name": "role",
          "type": "bytes32"
        },
        {
          "indexed": true,
          "internalType": "address",
          "name": "account",
          "type": "address"
        },
        {
          "indexed": true,
          "internalType": "address",
          "name": "sender",
          "type": "address"
        }
      ],
      "name": "RoleGranted",
      "type": "event"
    },
    {
      "anonymous": false,
      "inputs": [
        {
          "indexed": true,
          "internalType": "bytes32",
          "name": "role",
          "type": "bytes32"
        },
        {
          "indexed": true,
          "internalType": "address",
          "name": "account",
          "type": "address"
        },
        {
          "indexed": true,
          "internalType": "address",
          "name": "sender",
          "type": "address"
        }
      ],
      "name": "RoleRevoked",
      "type": "event"
    },
    {
      "anonymous": false,
      "inputs": [
        {
          "indexed": false,
          "internalType": "address",
          "name": "account",
          "type": "address"
        }
      ],
      "name": "Stopped",
      "type": "event"
    },
    {
      "inputs": [],
      "name": "ADMIN_ROLE",
      "outputs": [
        {
          "internalType": "bytes32",
          "name": "",
          "type": "bytes32"
        }
      ],
      "stateMutability": "view",
      "type": "function",
      "constant": true
    },
    {
      "inputs": [],
      "name": "DECIMALPERCENT",
      "outputs": [
        {
          "internalType": "uint256",
          "name": "",
          "type": "uint256"
        }
      ],
      "stateMutability": "view",
      "type": "function",
      "constant": true
    },
    {
      "inputs": [],
      "name": "DEFAULT_ADMIN_ROLE",
      "outputs": [
        {
          "internalType": "bytes32",
          "name": "",
          "type": "bytes32"
        }
      ],
      "stateMutability": "view",
      "type": "function",
      "constant": true
    },
    {
      "inputs": [],
      "name": "REFEREE_ROLE",
      "outputs": [
        {
          "internalType": "bytes32",
          "name": "",
          "type": "bytes32"
        }
      ],
      "stateMutability": "view",
      "type": "function",
      "constant": true
    },
    {
      "inputs": [
        {
          "internalType": "uint256",
          "name": "",
          "type": "uint256"
        }
      ],
      "name": "betOptions",
      "outputs": [
        {
          "internalType": "string",
          "name": "name",
          "type": "string"
        },
        {
          "internalType": "uint256",
          "name": "id",
          "type": "uint256"
        }
      ],
      "stateMutability": "view",
      "type": "function",
      "constant": true
    },
    {
      "inputs": [],
      "name": "feePercentageOwner",
      "outputs": [
        {
          "internalType": "uint256",
          "name": "",
          "type": "uint256"
        }
      ],
      "stateMutability": "view",
      "type": "function",
      "constant": true
    },
    {
      "inputs": [
        {
          "internalType": "bytes32",
          "name": "role",
          "type": "bytes32"
        }
      ],
      "name": "getRoleAdmin",
      "outputs": [
        {
          "internalType": "bytes32",
          "name": "",
          "type": "bytes32"
        }
      ],
      "stateMutability": "view",
      "type": "function",
      "constant": true
    },
    {
      "inputs": [
        {
          "internalType": "bytes32",
          "name": "role",
          "type": "bytes32"
        },
        {
          "internalType": "address",
          "name": "account",
          "type": "address"
        }
      ],
      "name": "grantRole",
      "outputs": [],
      "stateMutability": "nonpayable",
      "type": "function"
    },
    {
      "inputs": [
        {
          "internalType": "bytes32",
          "name": "role",
          "type": "bytes32"
        },
        {
          "internalType": "address",
          "name": "account",
          "type": "address"
        }
      ],
      "name": "hasRole",
      "outputs": [
        {
          "internalType": "bool",
          "name": "",
          "type": "bool"
        }
      ],
      "stateMutability": "view",
      "type": "function",
      "constant": true
    },
    {
      "inputs": [],
      "name": "stopped",
      "outputs": [
        {
          "internalType": "bool",
          "name": "",
          "type": "bool"
        }
      ],
      "stateMutability": "view",
      "type": "function",
      "constant": true
    },
    {
      "inputs": [
        {
          "internalType": "bytes4",
          "name": "interfaceId",
          "type": "bytes4"
        }
      ],
      "name": "supportsInterface",
      "outputs": [
        {
          "internalType": "bool",
          "name": "",
          "type": "bool"
        }
      ],
      "stateMutability": "view",
      "type": "function",
      "constant": true
    },
    {
      "inputs": [],
      "name": "token",
      "outputs": [
        {
          "internalType": "contract IERC20",
          "name": "",
          "type": "address"
        }
      ],
      "stateMutability": "view",
      "type": "function",
      "constant": true
    },
    {
      "inputs": [],
      "name": "hasReferee",
      "outputs": [
        {
          "internalType": "bool",
          "name": "",
          "type": "bool"
        }
      ],
      "stateMutability": "view",
      "type": "function",
      "constant": true
    },
    {
      "inputs": [],
      "name": "version",
      "outputs": [
        {
          "internalType": "string",
          "name": "",
          "type": "string"
        }
      ],
      "stateMutability": "pure",
      "type": "function",
      "constant": true
    },
    {
      "inputs": [
        {
          "internalType": "uint256",
          "name": "amount",
          "type": "uint256"
        },
        {
          "internalType": "uint256",
          "name": "betOptionId",
          "type": "uint256"
        }
      ],
      "name": "makeBet",
      "outputs": [
        {
          "internalType": "bool",
          "name": "",
          "type": "bool"
        }
      ],
      "stateMutability": "nonpayable",
      "type": "function"
    },
    {
      "inputs": [],
      "name": "getTokenBalance",
      "outputs": [
        {
          "internalType": "uint256",
          "name": "",
          "type": "uint256"
        }
      ],
      "stateMutability": "view",
      "type": "function",
      "constant": true
    },
    {
      "inputs": [
        {
          "internalType": "address",
          "name": "account",
          "type": "address"
        }
      ],
      "name": "addReferee",
      "outputs": [
        {
          "internalType": "bool",
          "name": "",
          "type": "bool"
        }
      ],
      "stateMutability": "nonpayable",
      "type": "function"
    },
    {
      "inputs": [
        {
          "internalType": "string",
          "name": "name",
          "type": "string"
        }
      ],
      "name": "existsBetOptionName",
      "outputs": [
        {
          "internalType": "bool",
          "name": "",
          "type": "bool"
        }
      ],
      "stateMutability": "view",
      "type": "function",
      "constant": true
    },
    {
      "inputs": [
        {
          "internalType": "uint256",
          "name": "id",
          "type": "uint256"
        }
      ],
      "name": "existsBetOptionId",
      "outputs": [
        {
          "internalType": "bool",
          "name": "",
          "type": "bool"
        }
      ],
      "stateMutability": "view",
      "type": "function",
      "constant": true
    },
    {
      "inputs": [],
      "name": "listBetOptions",
      "outputs": [
        {
          "components": [
            {
              "internalType": "string",
              "name": "name",
              "type": "string"
            },
            {
              "internalType": "uint256",
              "name": "id",
              "type": "uint256"
            }
          ],
          "internalType": "struct ISafeBet.BetOption[]",
          "name": "",
          "type": "tuple[]"
        }
      ],
      "stateMutability": "view",
      "type": "function",
      "constant": true
    },
    {
      "inputs": [
        {
          "internalType": "string",
          "name": "name",
          "type": "string"
        }
      ],
      "name": "addBetOption",
      "outputs": [
        {
          "internalType": "uint256",
          "name": "",
          "type": "uint256"
        }
      ],
      "stateMutability": "nonpayable",
      "type": "function"
    },
    {
      "inputs": [
        {
          "internalType": "bytes32",
          "name": "role",
          "type": "bytes32"
        },
        {
          "internalType": "address",
          "name": "account",
          "type": "address"
        }
      ],
      "name": "renounceRole",
      "outputs": [],
      "stateMutability": "nonpayable",
      "type": "function"
    },
    {
      "inputs": [
        {
          "internalType": "bytes32",
          "name": "role",
          "type": "bytes32"
        },
        {
          "internalType": "address",
          "name": "account",
          "type": "address"
        }
      ],
      "name": "revokeRole",
      "outputs": [],
      "stateMutability": "nonpayable",
      "type": "function"
    },
    {
      "inputs": [],
      "name": "stop",
      "outputs": [],
      "stateMutability": "nonpayable",
      "type": "function"
    }
  ],
  "bytecode": "0x60806040523480156200001157600080fd5b5060405162002ee238038062002ee2833981810160405281019062000037919062000290565b6000600160006101000a81548160ff021916908315150217905550620000766000801b6200006a620000e960201b60201c565b620000f160201b60201c565b81600360006101000a81548173ffffffffffffffffffffffffffffffffffffffff021916908373ffffffffffffffffffffffffffffffffffffffff160217905550806002819055506000600660006101000a81548160ff0219169083151502179055506000600781905550505062000343565b600033905090565b6200010382826200010760201b60201c565b5050565b620001198282620001f860201b60201c565b620001f457600160008084815260200190815260200160002060000160008373ffffffffffffffffffffffffffffffffffffffff1673ffffffffffffffffffffffffffffffffffffffff16815260200190815260200160002060006101000a81548160ff02191690831515021790555062000199620000e960201b60201c565b73ffffffffffffffffffffffffffffffffffffffff168173ffffffffffffffffffffffffffffffffffffffff16837f2f8788117e7eff1d82e926ec794901d17c78024a50270940304540a733656f0d60405160405180910390a45b5050565b600080600084815260200190815260200160002060000160008373ffffffffffffffffffffffffffffffffffffffff1673ffffffffffffffffffffffffffffffffffffffff16815260200190815260200160002060009054906101000a900460ff16905092915050565b60008151905062000273816200030f565b92915050565b6000815190506200028a8162000329565b92915050565b60008060408385031215620002a457600080fd5b6000620002b48582860162000262565b9250506020620002c78582860162000279565b9150509250929050565b6000620002de82620002e5565b9050919050565b600073ffffffffffffffffffffffffffffffffffffffff82169050919050565b6000819050919050565b6200031a81620002d1565b81146200032657600080fd5b50565b620003348162000305565b81146200034057600080fd5b50565b612b8f80620003536000396000f3fe608060405234801561001057600080fd5b50600436106101585760003560e01c806382b2e257116100c3578063d547741f1161007c578063d547741f146103e0578063d65fd6fc146103fc578063df898e321461041a578063e67005351461044a578063faae27d414610468578063fc0c546a1461049857610158565b806382b2e257146102f557806391d1485414610313578063a217fddf14610343578063a703984314610361578063af74bc1414610391578063b857a55b146103af57610158565b806336568abe1161011557806336568abe1461023157806353b20d791461024d57806354fd4d501461026b578063759cd2091461028957806375b238fc146102b957806375f12b21146102d757610158565b806301ffc9a71461015d57806307da68f51461018d57806310c22fa61461019757806317038dba146101b5578063248a9ca3146101e55780632f2ff15d14610215575b600080fd5b61017760048036038101906101729190611caa565b6104b6565b60405161018491906124df565b60405180910390f35b610195610530565b005b61019f6105d4565b6040516101ac9190612722565b60405180910390f35b6101cf60048036038101906101ca9190611d59565b6105da565b6040516101dc91906124df565b60405180910390f35b6101ff60048036038101906101fa9190611c45565b61066a565b60405161020c91906124fa565b60405180910390f35b61022f600480360381019061022a9190611c6e565b610689565b005b61024b60048036038101906102469190611c6e565b6106b2565b005b61025561077b565b60405161026291906124df565b60405180910390f35b610273610792565b6040516102809190612530565b60405180910390f35b6102a3600480360381019061029e9190611d18565b6107cf565b6040516102b091906124df565b60405180910390f35b6102c161080a565b6040516102ce91906124fa565b60405180910390f35b6102df61082e565b6040516102ec91906124df565b60405180910390f35b6102fd610845565b60405161030a9190612722565b60405180910390f35b61032d60048036038101906103289190611c6e565b6108f7565b60405161033a91906124df565b60405180910390f35b61034b610961565b60405161035891906124fa565b60405180910390f35b61037b60048036038101906103769190611bf3565b610968565b60405161038891906124df565b60405180910390f35b610399610b05565b6040516103a691906124fa565b60405180910390f35b6103c960048036038101906103c49190611d59565b610b29565b6040516103d7929190612552565b60405180910390f35b6103fa60048036038101906103f59190611c6e565b610be5565b005b610404610c90565b6040516104119190612722565b60405180910390f35b610434600480360381019061042f9190611dab565b610c96565b60405161044191906124df565b60405180910390f35b610452610f56565b60405161045f91906124bd565b60405180910390f35b610482600480360381019061047d9190611cd3565b611051565b60405161048f9190612722565b60405180910390f35b6104a0611291565b6040516104ad9190612515565b60405180910390f35b60007f7965db0b000000000000000000000000000000000000000000000000000000007bffffffffffffffffffffffffffffffffffffffffffffffffffffffff1916827bffffffffffffffffffffffffffffffffffffffffffffffffffffffff191614806105295750610528826112b7565b5b9050919050565b6105446000801b61053f611321565b6108f7565b610583576040517f08c379a000000000000000000000000000000000000000000000000000000000815260040161057a906126e2565b60405180910390fd5b61058b61077b565b6105ca576040517f08c379a00000000000000000000000000000000000000000000000000000000081526004016105c190612642565b60405180910390fd5b6105d2611329565b565b61271081565b600080600090505b60048054905081101561065f57826004828154811061062a577f4e487b7100000000000000000000000000000000000000000000000000000000600052603260045260246000fd5b906000526020600020906002020160010154141561064c576001915050610665565b8080610657906129ff565b9150506105e2565b50600090505b919050565b6000806000838152602001908152602001600020600101549050919050565b6106928261066a565b6106a38161069e611321565b6113cb565b6106ad8383611468565b505050565b6000801b8214156106f8576040517f08c379a00000000000000000000000000000000000000000000000000000000081526004016106ef906125c2565b60405180910390fd5b610700611321565b73ffffffffffffffffffffffffffffffffffffffff168173ffffffffffffffffffffffffffffffffffffffff161461076d576040517f08c379a0000000000000000000000000000000000000000000000000000000008152600401610764906125e2565b60405180910390fd5b6107778282611548565b5050565b6000600660009054906101000a900460ff16905090565b60606040518060400160405280600281526020017f7630000000000000000000000000000000000000000000000000000000000000815250905090565b6000806008836040516107e2919061241a565b90815260200160405180910390205414156108005760009050610805565b600190505b919050565b7fa49807205ce4d355092ef5a8a18f56e8913cf4a201fbe287825b095693c2177581565b6000600160009054906101000a900460ff16905090565b6000600360009054906101000a900473ffffffffffffffffffffffffffffffffffffffff1673ffffffffffffffffffffffffffffffffffffffff166370a08231306040518263ffffffff1660e01b81526004016108a2919061246b565b60206040518083038186803b1580156108ba57600080fd5b505afa1580156108ce573d6000803e3d6000fd5b505050506040513d601f19601f820116820180604052508101906108f29190611d82565b905090565b600080600084815260200190815260200160002060000160008373ffffffffffffffffffffffffffffffffffffffff1673ffffffffffffffffffffffffffffffffffffffff16815260200190815260200160002060009054906101000a900460ff16905092915050565b6000801b81565b600061097e6000801b610979611321565b6108f7565b6109bd576040517f08c379a00000000000000000000000000000000000000000000000000000000081526004016109b4906126e2565b60405180910390fd5b6109c561077b565b15610a05576040517f08c379a00000000000000000000000000000000000000000000000000000000081526004016109fc906126c2565b60405180910390fd5b610a0d61082e565b15610a4d576040517f08c379a0000000000000000000000000000000000000000000000000000000008152600401610a44906126a2565b60405180910390fd5b610a777fa49807205ce4d355092ef5a8a18f56e8913cf4a201fbe287825b095693c21775836108f7565b15610ab7576040517f08c379a0000000000000000000000000000000000000000000000000000000008152600401610aae90612682565b60405180910390fd5b610ae17faef88082b8671e875d97d0d6c81d06fb9e76f97b3ad7523a55a378e5298aeeee83610689565b6001600660006101000a81548160ff02191690831515021790555060019050919050565b7faef88082b8671e875d97d0d6c81d06fb9e76f97b3ad7523a55a378e5298aeeee81565b60048181548110610b3957600080fd5b9060005260206000209060020201600091509050806000018054610b5c906129cd565b80601f0160208091040260200160405190810160405280929190818152602001828054610b88906129cd565b8015610bd55780601f10610baa57610100808354040283529160200191610bd5565b820191906000526020600020905b815481529060010190602001808311610bb857829003601f168201915b5050505050908060010154905082565b610bee8261066a565b610bff81610bfa611321565b6113cb565b6000801b831415610c8157610c12611321565b73ffffffffffffffffffffffffffffffffffffffff168273ffffffffffffffffffffffffffffffffffffffff161415610c80576040517f08c379a0000000000000000000000000000000000000000000000000000000008152600401610c7790612622565b60405180910390fd5b5b610c8b83836115cb565b505050565b60025481565b6000610ca061082e565b15610ce0576040517f08c379a0000000000000000000000000000000000000000000000000000000008152600401610cd7906126a2565b60405180910390fd5b610ce9826105da565b610d28576040517f08c379a0000000000000000000000000000000000000000000000000000000008152600401610d1f906125a2565b60405180910390fd5b60008311610d6b576040517f08c379a0000000000000000000000000000000000000000000000000000000008152600401610d6290612662565b60405180910390fd5b610d736119cf565b610d7b611321565b816000019073ffffffffffffffffffffffffffffffffffffffff16908173ffffffffffffffffffffffffffffffffffffffff16815250508281602001818152505083816040018181525050600581908060018154018082558091505060019003906000526020600020906003020160009091909190915060008201518160000160006101000a81548173ffffffffffffffffffffffffffffffffffffffff021916908373ffffffffffffffffffffffffffffffffffffffff160217905550602082015181600101556040820151816002015550508360076000828254610e61919061280f565b9250508190555083600960008581526020019081526020016000206000828254610e8b919061280f565b92505081905550600360009054906101000a900473ffffffffffffffffffffffffffffffffffffffff1673ffffffffffffffffffffffffffffffffffffffff166323b872dd610ed8611321565b30876040518463ffffffff1660e01b8152600401610ef893929190612486565b602060405180830381600087803b158015610f1257600080fd5b505af1158015610f26573d6000803e3d6000fd5b505050506040513d601f19601f82011682018060405250810190610f4a9190611c1c565b50600191505092915050565b60606004805480602002602001604051908101604052809291908181526020016000905b828210156110485783829060005260206000209060020201604051806040016040529081600082018054610fad906129cd565b80601f0160208091040260200160405190810160405280929190818152602001828054610fd9906129cd565b80156110265780601f10610ffb57610100808354040283529160200191611026565b820191906000526020600020905b81548152906001019060200180831161100957829003601f168201915b5050505050815260200160018201548152505081526020019060010190610f7a565b50505050905090565b60006110676000801b611062611321565b6108f7565b6110a6576040517f08c379a000000000000000000000000000000000000000000000000000000000815260040161109d906126e2565b60405180910390fd5b6110ae61082e565b156110ee576040517f08c379a00000000000000000000000000000000000000000000000000000000081526004016110e5906126a2565b60405180910390fd5b61113b83838080601f016020809104026020016040519081016040528093929190818152602001838380828437600081840152601f19601f820116905080830192505050505050506107cf565b1561117b576040517f08c379a000000000000000000000000000000000000000000000000000000000815260040161117290612602565b60405180910390fd5b6000600480549050905061118d611a06565b84848080601f016020809104026020016040519081016040528093929190818152602001838380828437600081840152601f19601f820116905080830192505050505050508160000181905250818160200181815250506004819080600181540180825580915050600190039060005260206000209060020201600090919091909150600082015181600001908051906020019061122c929190611a20565b50602082015181600101555050600060048054905090508060088787604051611256929190612401565b908152602001604051809103902081905550600060096000846020015181526020019081526020016000208190555080935050505092915050565b600360009054906101000a900473ffffffffffffffffffffffffffffffffffffffff1681565b60007f01ffc9a7000000000000000000000000000000000000000000000000000000007bffffffffffffffffffffffffffffffffffffffffffffffffffffffff1916827bffffffffffffffffffffffffffffffffffffffffffffffffffffffff1916149050919050565b600033905090565b61133161082e565b15611371576040517f08c379a0000000000000000000000000000000000000000000000000000000008152600401611368906126a2565b60405180910390fd5b60018060006101000a81548160ff0219169083151502179055507f55c4adf1f68f084b809304657594a92ba835ada8d3b5340955bf05746723c05b6113b4611321565b6040516113c1919061246b565b60405180910390a1565b6113d582826108f7565b611464576113fa8173ffffffffffffffffffffffffffffffffffffffff1660146115f4565b6114088360001c60206115f4565b604051602001611419929190612431565b6040516020818303038152906040526040517f08c379a000000000000000000000000000000000000000000000000000000000815260040161145b9190612530565b60405180910390fd5b5050565b61147282826108f7565b61154457600160008084815260200190815260200160002060000160008373ffffffffffffffffffffffffffffffffffffffff1673ffffffffffffffffffffffffffffffffffffffff16815260200190815260200160002060006101000a81548160ff0219169083151502179055506114e9611321565b73ffffffffffffffffffffffffffffffffffffffff168173ffffffffffffffffffffffffffffffffffffffff16837f2f8788117e7eff1d82e926ec794901d17c78024a50270940304540a733656f0d60405160405180910390a45b5050565b611550611321565b73ffffffffffffffffffffffffffffffffffffffff168173ffffffffffffffffffffffffffffffffffffffff16146115bd576040517f08c379a00000000000000000000000000000000000000000000000000000000081526004016115b490612702565b60405180910390fd5b6115c782826118ee565b5050565b6115d48261066a565b6115e5816115e0611321565b6113cb565b6115ef83836118ee565b505050565b6060600060028360026116079190612865565b611611919061280f565b67ffffffffffffffff811115611650577f4e487b7100000000000000000000000000000000000000000000000000000000600052604160045260246000fd5b6040519080825280601f01601f1916602001820160405280156116825781602001600182028036833780820191505090505b5090507f3000000000000000000000000000000000000000000000000000000000000000816000815181106116e0577f4e487b7100000000000000000000000000000000000000000000000000000000600052603260045260246000fd5b60200101907effffffffffffffffffffffffffffffffffffffffffffffffffffffffffffff1916908160001a9053507f78000000000000000000000000000000000000000000000000000000000000008160018151811061176a577f4e487b7100000000000000000000000000000000000000000000000000000000600052603260045260246000fd5b60200101907effffffffffffffffffffffffffffffffffffffffffffffffffffffffffffff1916908160001a905350600060018460026117aa9190612865565b6117b4919061280f565b90505b60018111156118a0577f3031323334353637383961626364656600000000000000000000000000000000600f86166010811061181c577f4e487b7100000000000000000000000000000000000000000000000000000000600052603260045260246000fd5b1a60f81b828281518110611859577f4e487b7100000000000000000000000000000000000000000000000000000000600052603260045260246000fd5b60200101907effffffffffffffffffffffffffffffffffffffffffffffffffffffffffffff1916908160001a905350600485901c945080611899906129a3565b90506117b7565b50600084146118e4576040517f08c379a00000000000000000000000000000000000000000000000000000000081526004016118db90612582565b60405180910390fd5b8091505092915050565b6118f882826108f7565b156119cb57600080600084815260200190815260200160002060000160008373ffffffffffffffffffffffffffffffffffffffff1673ffffffffffffffffffffffffffffffffffffffff16815260200190815260200160002060006101000a81548160ff021916908315150217905550611970611321565b73ffffffffffffffffffffffffffffffffffffffff168173ffffffffffffffffffffffffffffffffffffffff16837ff6391f5c32d9c69d2a47ea670b442974b53935d1edc7fd64eb21e047a839171b60405160405180910390a45b5050565b6040518060600160405280600073ffffffffffffffffffffffffffffffffffffffff16815260200160008152602001600081525090565b604051806040016040528060608152602001600081525090565b828054611a2c906129cd565b90600052602060002090601f016020900481019282611a4e5760008555611a95565b82601f10611a6757805160ff1916838001178555611a95565b82800160010185558215611a95579182015b82811115611a94578251825591602001919060010190611a79565b5b509050611aa29190611aa6565b5090565b5b80821115611abf576000816000905550600101611aa7565b5090565b6000611ad6611ad18461276e565b61273d565b905082815260208101848484011115611aee57600080fd5b611af9848285612961565b509392505050565b600081359050611b1081612ae6565b92915050565b600081519050611b2581612afd565b92915050565b600081359050611b3a81612b14565b92915050565b600081359050611b4f81612b2b565b92915050565b60008083601f840112611b6757600080fd5b8235905067ffffffffffffffff811115611b8057600080fd5b602083019150836001820283011115611b9857600080fd5b9250929050565b600082601f830112611bb057600080fd5b8135611bc0848260208601611ac3565b91505092915050565b600081359050611bd881612b42565b92915050565b600081519050611bed81612b42565b92915050565b600060208284031215611c0557600080fd5b6000611c1384828501611b01565b91505092915050565b600060208284031215611c2e57600080fd5b6000611c3c84828501611b16565b91505092915050565b600060208284031215611c5757600080fd5b6000611c6584828501611b2b565b91505092915050565b60008060408385031215611c8157600080fd5b6000611c8f85828601611b2b565b9250506020611ca085828601611b01565b9150509250929050565b600060208284031215611cbc57600080fd5b6000611cca84828501611b40565b91505092915050565b60008060208385031215611ce657600080fd5b600083013567ffffffffffffffff811115611d0057600080fd5b611d0c85828601611b55565b92509250509250929050565b600060208284031215611d2a57600080fd5b600082013567ffffffffffffffff811115611d4457600080fd5b611d5084828501611b9f565b91505092915050565b600060208284031215611d6b57600080fd5b6000611d7984828501611bc9565b91505092915050565b600060208284031215611d9457600080fd5b6000611da284828501611bde565b91505092915050565b60008060408385031215611dbe57600080fd5b6000611dcc85828601611bc9565b9250506020611ddd85828601611bc9565b9150509250929050565b6000611df383836123a6565b905092915050565b611e04816128bf565b82525050565b6000611e15826127ae565b611e1f81856127d1565b935083602082028501611e318561279e565b8060005b85811015611e6d5784840389528151611e4e8582611de7565b9450611e59836127c4565b925060208a01995050600181019050611e35565b50829750879550505050505092915050565b611e88816128d1565b82525050565b611e97816128dd565b82525050565b611ea68161293d565b82525050565b6000611eb88385612804565b9350611ec5838584612961565b82840190509392505050565b6000611edc826127b9565b611ee681856127e2565b9350611ef6818560208601612970565b611eff81612ad5565b840191505092915050565b6000611f15826127b9565b611f1f81856127f3565b9350611f2f818560208601612970565b611f3881612ad5565b840191505092915050565b6000611f4e826127b9565b611f588185612804565b9350611f68818560208601612970565b80840191505092915050565b6000611f816020836127f3565b91507f537472696e67733a20686578206c656e67746820696e73756666696369656e746000830152602082019050919050565b6000611fc16019836127f3565b91507f626574206f7074696f6e20646f6573206e6f74206578697374000000000000006000830152602082019050919050565b6000612001601b836127f3565b91507f63616e206e6f742072656e6f756e636520726f6c65206f776e657200000000006000830152602082019050919050565b60006120416020836127f3565b91507f63616e206f6e6c792072656e6f756e636520726f6c657320666f722073656c666000830152602082019050919050565b6000612081601a836127f3565b91507f626574206f7074696f6e7320616c7265616479206578697374730000000000006000830152602082019050919050565b60006120c16025836127f3565b91507f63616e206e6f74207265766f6b6520796f757273656c6620696e20726f6c652060008301527f6f776e65720000000000000000000000000000000000000000000000000000006020830152604082019050919050565b60006121276014836127f3565b91507f646f6573206e6f742068617320726566657265650000000000000000000000006000830152602082019050919050565b60006121676021836127f3565b91507f62657420616d6f756e74206d7573742062652067726561746572207468616e2060008301527f30000000000000000000000000000000000000000000000000000000000000006020830152604082019050919050565b60006121cd6008836127f3565b91507f69732061646d696e0000000000000000000000000000000000000000000000006000830152602082019050919050565b600061220d6012836127f3565b91507f53746f707061626c653a2073746f7070656400000000000000000000000000006000830152602082019050919050565b600061224d600b836127f3565b91507f68617320726566657265650000000000000000000000000000000000000000006000830152602082019050919050565b600061228d601783612804565b91507f416363657373436f6e74726f6c3a206163636f756e74200000000000000000006000830152601782019050919050565b60006122cd6009836127f3565b91507f6e6f74206f776e657200000000000000000000000000000000000000000000006000830152602082019050919050565b600061230d601183612804565b91507f206973206d697373696e6720726f6c65200000000000000000000000000000006000830152601182019050919050565b600061234d602f836127f3565b91507f416363657373436f6e74726f6c3a2063616e206f6e6c792072656e6f756e636560008301527f20726f6c657320666f722073656c6600000000000000000000000000000000006020830152604082019050919050565b600060408301600083015184820360008601526123c38282611ed1565b91505060208301516123d860208601826123e3565b508091505092915050565b6123ec81612933565b82525050565b6123fb81612933565b82525050565b600061240e828486611eac565b91508190509392505050565b60006124268284611f43565b915081905092915050565b600061243c82612280565b91506124488285611f43565b915061245382612300565b915061245f8284611f43565b91508190509392505050565b60006020820190506124806000830184611dfb565b92915050565b600060608201905061249b6000830186611dfb565b6124a86020830185611dfb565b6124b560408301846123f2565b949350505050565b600060208201905081810360008301526124d78184611e0a565b905092915050565b60006020820190506124f46000830184611e7f565b92915050565b600060208201905061250f6000830184611e8e565b92915050565b600060208201905061252a6000830184611e9d565b92915050565b6000602082019050818103600083015261254a8184611f0a565b905092915050565b6000604082019050818103600083015261256c8185611f0a565b905061257b60208301846123f2565b9392505050565b6000602082019050818103600083015261259b81611f74565b9050919050565b600060208201905081810360008301526125bb81611fb4565b9050919050565b600060208201905081810360008301526125db81611ff4565b9050919050565b600060208201905081810360008301526125fb81612034565b9050919050565b6000602082019050818103600083015261261b81612074565b9050919050565b6000602082019050818103600083015261263b816120b4565b9050919050565b6000602082019050818103600083015261265b8161211a565b9050919050565b6000602082019050818103600083015261267b8161215a565b9050919050565b6000602082019050818103600083015261269b816121c0565b9050919050565b600060208201905081810360008301526126bb81612200565b9050919050565b600060208201905081810360008301526126db81612240565b9050919050565b600060208201905081810360008301526126fb816122c0565b9050919050565b6000602082019050818103600083015261271b81612340565b9050919050565b600060208201905061273760008301846123f2565b92915050565b6000604051905081810181811067ffffffffffffffff8211171561276457612763612aa6565b5b8060405250919050565b600067ffffffffffffffff82111561278957612788612aa6565b5b601f19601f8301169050602081019050919050565b6000819050602082019050919050565b600081519050919050565b600081519050919050565b6000602082019050919050565b600082825260208201905092915050565b600082825260208201905092915050565b600082825260208201905092915050565b600081905092915050565b600061281a82612933565b915061282583612933565b9250827fffffffffffffffffffffffffffffffffffffffffffffffffffffffffffffffff0382111561285a57612859612a48565b5b828201905092915050565b600061287082612933565b915061287b83612933565b9250817fffffffffffffffffffffffffffffffffffffffffffffffffffffffffffffffff04831182151516156128b4576128b3612a48565b5b828202905092915050565b60006128ca82612913565b9050919050565b60008115159050919050565b6000819050919050565b60007fffffffff0000000000000000000000000000000000000000000000000000000082169050919050565b600073ffffffffffffffffffffffffffffffffffffffff82169050919050565b6000819050919050565b60006129488261294f565b9050919050565b600061295a82612913565b9050919050565b82818337600083830152505050565b60005b8381101561298e578082015181840152602081019050612973565b8381111561299d576000848401525b50505050565b60006129ae82612933565b915060008214156129c2576129c1612a48565b5b600182039050919050565b600060028204905060018216806129e557607f821691505b602082108114156129f9576129f8612a77565b5b50919050565b6000612a0a82612933565b91507fffffffffffffffffffffffffffffffffffffffffffffffffffffffffffffffff821415612a3d57612a3c612a48565b5b600182019050919050565b7f4e487b7100000000000000000000000000000000000000000000000000000000600052601160045260246000fd5b7f4e487b7100000000000000000000000000000000000000000000000000000000600052602260045260246000fd5b7f4e487b7100000000000000000000000000000000000000000000000000000000600052604160045260246000fd5b6000601f19601f8301169050919050565b612aef816128bf565b8114612afa57600080fd5b50565b612b06816128d1565b8114612b1157600080fd5b50565b612b1d816128dd565b8114612b2857600080fd5b50565b612b34816128e7565b8114612b3f57600080fd5b50565b612b4b81612933565b8114612b5657600080fd5b5056fea26469706673582212207a29e2fa6bcb30276e1bce6354f7cbb73ae41074176c14823c4db57d6804652464736f6c63430008000033",
  "immutableReferences": {},
  "source": "// SPDX-License-Identifier: MIT\npragma solidity ^0.8.0;\n\n\n/// @title SafeBet\n/// @author Bruno Pedrazza\n\n// AccessControl.sol :  https://github.com/OpenZeppelin/openzeppelin-contracts/blob/v4.1.0/contracts/access/AccessControl.sol\n// Pausable.sol :       https://github.com/OpenZeppelin/openzeppelin-contracts/blob/v4.1.0/contracts/security/Pausable.sol\nimport \"@openzeppelin/contracts/token/ERC20/ERC20.sol\";\nimport \"@openzeppelin/contracts/access/AccessControl.sol\";\nimport \"./ISafeBet.sol\";\nimport \"./Stoppable.sol\";\n\n/**\n * @dev SafeBet\n *\n * Author: Bruno Pedrazza\n *\n * It uses [Open Zeppelin Contracts]\n * (https://github.com/OpenZeppelin/openzeppelin-contracts/blob/v4.1.0/)\n *\n */\ncontract SafeBet is AccessControl, ISafeBet, Stoppable {\n  address private constant ZERO_ADDRESS = address(0);\n  bytes32 private constant NULL_HASH = bytes32(0);\n  bytes32 public constant REFEREE_ROLE = keccak256(\"REFEREE_ROLE\");\n  bytes32 public constant ADMIN_ROLE = keccak256(\"ADMIN_ROLE\");\n\n  /**\n   * @dev DECIMALPERCENT is the representation of 100% using (2) decimal places\n   * 100.00 = percentage accuracy (2) to 100%\n   */\n  uint256 public constant DECIMALPERCENT = 10000;\n  \n  /**\n   * @dev Fee percentage charged by the safebet owner.\n   *\n   * For each amount received in the contract, a fee percentage is discounted.\n   * This function returns this fee percentage.\n   * Include 2 decimal places.\n   */\n  uint256 public feePercentageOwner;\n\n  IERC20 public token;\n\n  BetOption[] public betOptions;\n\n  UserBet[] private _userBets;\n  bool private _hasReferee;\n  uint256 private _totalBetAmount;\n\n  mapping(string => uint256) private betOptionIndex;\n  mapping(uint256 => uint256) private betOptionTotalAmount;\n\n  /**\n   * @dev Function called only when the smart contract is deployed.\n   *\n   * Parameters:\n   * - address tokenAddress - address of the token to be used to bet and receive claims\n   *\n   * Actions:\n   * - the transaction's sender will be added in the DEFAULT_ADMIN_ROLE.\n   * - the token will be defined by the parameter tokenAddress\n   */\n  constructor(address tokenAddress, uint256 feePercentageOwnerParam) {\n    _setupRole(DEFAULT_ADMIN_ROLE, _msgSender());\n    token = IERC20(tokenAddress);\n    feePercentageOwner = feePercentageOwnerParam;\n    _hasReferee = false;\n    _totalBetAmount = 0;\n  }\n\n  /**\n   * @dev Returns true if the contract has some account with referee role, and false otherwise.\n   */\n  function hasReferee() public view virtual returns (bool) {\n      return _hasReferee;\n  }\n\n  /**\n   * @dev Modifier to make a function callable only when the contract does not have a referee.\n   *\n   * Requirements:\n   *\n   * - The contract must not have an account with referee role\n   */\n  modifier whenNotHasReferee() {\n      require(!hasReferee(), \"has referee\");\n      _;\n  }\n\n  /**\n   * @dev Modifier to make a function callable only when the contract has a referee.\n   *\n   * Requirements:\n   *\n   * - The contract must have a referee.\n   */\n  modifier whenHasReferee() {\n      require(hasReferee(), \"does not has referee\");\n      _;\n  }\n\n  /**\n   * @dev Modifier which verifies if the caller is an owner,\n   * it means he has the role `DEFAULT_ADMIN_ROLE`.\n   *\n   * The role `DEFAULT_ADMIN_ROLE` is defined by Open Zeppelin's AccessControl smart contract.\n   *\n   * By default (setted in the constructor) the account which deployed this smart contract is in this role.\n   *\n   * This owner can add / remove other owners.\n   */\n  modifier onlyOwner() {\n    require(hasRole(DEFAULT_ADMIN_ROLE, _msgSender()), \"not owner\");\n    _;\n  }\n\n  /**\n   * @dev Modifier which verifies if the caller is a referee,\n   * it means he has the role `REFEREE_ROLE`.\n   *\n   * Role REFEREE are referred to its `bytes32` identifier,\n   * defined in the `public constant` called REFEREE_ROLE.\n   * It should be exposed in the external API and be unique.\n   *\n   * Role REFEREE is used to define which bet option is the winner one.\n   * This role is responsible for enabling the user's claims.\n   */\n  modifier onlyReferee() {\n    require(hasRole(REFEREE_ROLE, _msgSender()), \"not referee\");\n    _;\n  }\n\n  /**\n   * @dev Modifier which verifies if the caller is a admin,\n   * it means he has the role `ADMIN_ROLE`.\n   *\n   * Role ADMIN are referred to its `bytes32` identifier,\n   * defined in the `public constant` called ADMIN_ROLE.\n   * It should be exposed in the external API and be unique.\n   *\n   * Role ADMIN is used to add/remove bet options.\n   */\n  modifier onlyAdmin() {\n    require(hasRole(ADMIN_ROLE, _msgSender()), \"not admin\");\n    _;\n  }\n\n  /**\n   * @dev Function which returns the safebet's contract version.\n   *\n   * This is a fixed value define in source code.\n   *\n   * Parameters: none\n   *\n   * Returns: string\n   */\n  function version() external pure override returns (string memory) {\n    return \"v0\";\n  }\n\n  /**\n   * @dev Private function to compare two strings\n   * and returns `true` if the strings are equal,\n   * otherwise it returns false.\n   *\n   * Parameters: stringA, stringB\n   *\n   * Returns: bool\n   */\n  function compareStrings(string memory a, string memory b)\n    private\n    pure\n    returns (bool)\n  {\n    return (keccak256(abi.encodePacked((a))) == keccak256(abi.encodePacked((b))));\n  }\n\n  function makeBet(\n    uint256 amount,\n    uint256 betOptionId\n  ) external override whenNotStopped returns (bool) {\n    require(existsBetOptionId(betOptionId), \"bet option does not exist\");\n    require(amount > 0, \"bet amount must be greater than 0\");\n\n    UserBet memory b;\n    b.user = _msgSender();\n    b.betOptionId = betOptionId;\n    b.amount = amount;\n    _userBets.push(b);\n\n    _totalBetAmount += amount;\n    betOptionTotalAmount[betOptionId] += amount;\n\n    //Transfer the tokens on IERC20, they should be already approved for the SafeBet Address to use them\n    token.transferFrom(_msgSender(), address(this), amount);\n    return true;\n  }\n\n  /**\n   * @dev Returns token balance.\n   *\n   * Parameters: none\n   *\n   * Returns: integer amount of tokens in this contract\n   *\n   */\n  function getTokenBalance() external view override returns (uint256) {\n    return token.balanceOf(address(this));\n  }\n\n  /**\n   * @dev This function add an address in the `REFEREE_ROLE`.\n   *\n   * Only owner can call it.\n   * The contract must not have a referee.\n   *\n   * Can not be called if the contract is paused.\n   * This role can not be revoked by the owner.\n   * Only one account can have a referee role.\n   *\n   * Parameters: address of referee to be added\n   *\n   * Returns: bool - true if it is sucessful\n   *\n   */\n  function addReferee(address account)\n    external\n    onlyOwner\n    whenNotHasReferee\n    whenNotStopped\n    returns (bool)\n  {\n    require(!hasRole(ADMIN_ROLE, account), \"is admin\");\n    grantRole(REFEREE_ROLE, account);\n    _hasReferee = true;\n    return true;\n  }\n\n  /**\n   * @dev Returns if a bet option is in the list of bet options.\n   *\n   * Parameters: string name of bet option\n   *\n   * Returns: boolean true if it is in the list\n   *\n   */\n  function existsBetOptionName(string memory name)\n    public\n    view\n    override\n    returns (bool)\n  {\n    if (betOptionIndex[name] == 0) return false;\n    else return true;\n  }\n\n  /**\n   * @dev Returns if a bet option is in the list of bet options.\n   *\n   * Parameters: string name of bet option\n   *\n   * Returns: boolean true if it is in the list\n   *\n   */\n  function existsBetOptionId(uint256 id)\n    public\n    view\n    override\n    returns (bool)\n  {\n    for (uint p = 0; p < betOptions.length; p++) {\n      if (betOptions[p].id == id) {\n        return true;\n      }\n    }\n    return false;\n  }\n\n  /**\n   * @dev List of bet options that are available to bet.\n   *\n   * Parameters: none\n   *\n   * Returns: an array of bet options\n   *\n   */\n  function listBetOptions() \n    external \n    view \n    override \n    returns (BetOption[] memory) \n  {\n    return betOptions;\n  }\n\n  function addBetOption(\n    string calldata name\n  ) external override onlyOwner whenNotStopped returns (uint256) {\n    require(!existsBetOptionName(name), \"bet options already exists\");\n\n    uint256 len = betOptions.length;\n    BetOption memory b;\n    b.name = name;\n    b.id = len;\n    betOptions.push(b);\n    uint256 index = betOptions.length;\n    betOptionIndex[name] = index;\n    betOptionTotalAmount[b.id] = 0;\n    return (index);\n  }\n\n  /**\n   * @dev This function allows a user to renounce a role\n   *\n   * Parameters: bytes32 role, address account\n   *\n   * Returns: none\n   *\n   * Requirements:\n   *\n   * - An owner can not renounce the role DEFAULT_ADMIN_ROLE.\n   * - Can only renounce roles for your own account.\n   *\n   */\n  function renounceRole(bytes32 role, address account) public virtual override {\n    require(role != DEFAULT_ADMIN_ROLE, \"can not renounce role owner\");\n    require(account == _msgSender(), \"can only renounce roles for self\");\n    super.renounceRole(role, account);\n  }\n\n  /**\n   * @dev This function allows to revoke a role\n   *\n   * Parameters: bytes32 role, address account\n   *\n   * Returns: none\n   *\n   * Requirements:\n   *\n   * - An owner can not revoke yourself in the role DEFAULT_ADMIN_ROLE.\n   *\n   */\n  function revokeRole(bytes32 role, address account)\n    public\n    virtual\n    override\n    onlyRole(getRoleAdmin(role))\n  {\n    if (role == DEFAULT_ADMIN_ROLE) {\n      require(account != _msgSender(), \"can not revoke yourself in role owner\");\n    }\n    super.revokeRole(role, account);\n  }\n\n  /**\n   * @dev This function stops the contract.\n   *\n   * Only owner can call it.\n   *\n   * Parameters: none\n   *\n   * Returns: none\n   *\n   * Requirements:\n   *\n   * - The contract must not be stopped.\n   * - The contract must have a referee.\n   *\n   */\n  function stop() external \n    onlyOwner\n    whenHasReferee\n  {\n    /**\n     * @dev See {Stoppable-_stop}.\n     *\n     * Requirements:\n     *\n     * - The contract must not be stopped.\n     */\n    _stop();\n  }\n}\n",
  "sourcePath": "/Users/pedrazza/code/mystuff/safebet-web3/web3/contracts/SafeBet.sol",
  "compiler": {
    "name": "solc",
    "version": "0.8.0+commit.c7dfd78e.Emscripten.clang"
  },
  "schemaVersion": "3.4.6",
  "updatedAt": "2022-04-18T01:01:30.077Z",
  "networkType": "ethereum",
  "devdoc": {
    "details": "SafeBet Author: Bruno Pedrazza It uses [Open Zeppelin Contracts] (https://github.com/OpenZeppelin/openzeppelin-contracts/blob/v4.1.0/)",
    "kind": "dev",
    "methods": {
      "addReferee(address)": {
        "details": "This function add an address in the `REFEREE_ROLE`. Only owner can call it. The contract must not have a referee. Can not be called if the contract is paused. This role can not be revoked by the owner. Only one account can have a referee role. Parameters: address of referee to be added Returns: bool - true if it is sucessful"
      },
      "constructor": {
        "details": "Function called only when the smart contract is deployed. Parameters: - address tokenAddress - address of the token to be used to bet and receive claims Actions: - the transaction's sender will be added in the DEFAULT_ADMIN_ROLE. - the token will be defined by the parameter tokenAddress"
      },
      "existsBetOptionId(uint256)": {
        "details": "Returns if a bet option is in the list of bet options. Parameters: string name of bet option Returns: boolean true if it is in the list"
      },
      "existsBetOptionName(string)": {
        "details": "Returns if a bet option is in the list of bet options. Parameters: string name of bet option Returns: boolean true if it is in the list"
      },
      "getRoleAdmin(bytes32)": {
        "details": "Returns the admin role that controls `role`. See {grantRole} and {revokeRole}. To change a role's admin, use {_setRoleAdmin}."
      },
      "getTokenBalance()": {
        "details": "Returns token balance. Parameters: none Returns: integer amount of tokens in this contract"
      },
      "grantRole(bytes32,address)": {
        "details": "Grants `role` to `account`. If `account` had not been already granted `role`, emits a {RoleGranted} event. Requirements: - the caller must have ``role``'s admin role."
      },
      "hasReferee()": {
        "details": "Returns true if the contract has some account with referee role, and false otherwise."
      },
      "hasRole(bytes32,address)": {
        "details": "Returns `true` if `account` has been granted `role`."
      },
      "listBetOptions()": {
        "details": "List of bet options that are available to bet. Parameters: none Returns: an array of bet options"
      },
      "renounceRole(bytes32,address)": {
        "details": "This function allows a user to renounce a role Parameters: bytes32 role, address account Returns: none Requirements: - An owner can not renounce the role DEFAULT_ADMIN_ROLE. - Can only renounce roles for your own account."
      },
      "revokeRole(bytes32,address)": {
        "details": "This function allows to revoke a role Parameters: bytes32 role, address account Returns: none Requirements: - An owner can not revoke yourself in the role DEFAULT_ADMIN_ROLE."
      },
      "stop()": {
        "details": "This function stops the contract. Only owner can call it. Parameters: none Returns: none Requirements: - The contract must not be stopped. - The contract must have a referee."
      },
      "stopped()": {
        "details": "Returns true if the contract is stopped, and false otherwise."
      },
      "supportsInterface(bytes4)": {
        "details": "See {IERC165-supportsInterface}."
      },
      "version()": {
        "details": "Function which returns the safebet's contract version. This is a fixed value define in source code. Parameters: none Returns: string"
      }
    },
    "stateVariables": {
      "DECIMALPERCENT": {
        "details": "DECIMALPERCENT is the representation of 100% using (2) decimal places 100.00 = percentage accuracy (2) to 100%"
      },
      "feePercentageOwner": {
        "details": "Fee percentage charged by the safebet owner. For each amount received in the contract, a fee percentage is discounted. This function returns this fee percentage. Include 2 decimal places."
      }
    },
    "version": 1
  },
  "userdoc": {
    "kind": "user",
    "methods": {},
    "version": 1
  }
}