{
  "contractName": "SafeBet",
  "abi": [
    {
      "inputs": [
        {
          "internalType": "address",
          "name": "tokenAddress",
          "type": "address"
        }
      ],
      "stateMutability": "nonpayable",
      "type": "constructor"
    },
    {
      "anonymous": false,
      "inputs": [
        {
          "indexed": true,
          "internalType": "bytes32",
          "name": "role",
          "type": "bytes32"
        },
        {
          "indexed": true,
          "internalType": "bytes32",
          "name": "previousAdminRole",
          "type": "bytes32"
        },
        {
          "indexed": true,
          "internalType": "bytes32",
          "name": "newAdminRole",
          "type": "bytes32"
        }
      ],
      "name": "RoleAdminChanged",
      "type": "event"
    },
    {
      "anonymous": false,
      "inputs": [
        {
          "indexed": true,
          "internalType": "bytes32",
          "name": "role",
          "type": "bytes32"
        },
        {
          "indexed": true,
          "internalType": "address",
          "name": "account",
          "type": "address"
        },
        {
          "indexed": true,
          "internalType": "address",
          "name": "sender",
          "type": "address"
        }
      ],
      "name": "RoleGranted",
      "type": "event"
    },
    {
      "anonymous": false,
      "inputs": [
        {
          "indexed": true,
          "internalType": "bytes32",
          "name": "role",
          "type": "bytes32"
        },
        {
          "indexed": true,
          "internalType": "address",
          "name": "account",
          "type": "address"
        },
        {
          "indexed": true,
          "internalType": "address",
          "name": "sender",
          "type": "address"
        }
      ],
      "name": "RoleRevoked",
      "type": "event"
    },
    {
      "anonymous": false,
      "inputs": [
        {
          "indexed": false,
          "internalType": "address",
          "name": "account",
          "type": "address"
        }
      ],
      "name": "Stopped",
      "type": "event"
    },
    {
      "inputs": [],
      "name": "ADMIN_ROLE",
      "outputs": [
        {
          "internalType": "bytes32",
          "name": "",
          "type": "bytes32"
        }
      ],
      "stateMutability": "view",
      "type": "function"
    },
    {
      "inputs": [],
      "name": "DEFAULT_ADMIN_ROLE",
      "outputs": [
        {
          "internalType": "bytes32",
          "name": "",
          "type": "bytes32"
        }
      ],
      "stateMutability": "view",
      "type": "function"
    },
    {
      "inputs": [],
      "name": "REFEREE_ROLE",
      "outputs": [
        {
          "internalType": "bytes32",
          "name": "",
          "type": "bytes32"
        }
      ],
      "stateMutability": "view",
      "type": "function"
    },
    {
      "inputs": [
        {
          "internalType": "uint256",
          "name": "",
          "type": "uint256"
        }
      ],
      "name": "betOptions",
      "outputs": [
        {
          "internalType": "string",
          "name": "name",
          "type": "string"
        },
        {
          "internalType": "uint256",
          "name": "id",
          "type": "uint256"
        }
      ],
      "stateMutability": "view",
      "type": "function"
    },
    {
      "inputs": [
        {
          "internalType": "bytes32",
          "name": "role",
          "type": "bytes32"
        }
      ],
      "name": "getRoleAdmin",
      "outputs": [
        {
          "internalType": "bytes32",
          "name": "",
          "type": "bytes32"
        }
      ],
      "stateMutability": "view",
      "type": "function"
    },
    {
      "inputs": [
        {
          "internalType": "bytes32",
          "name": "role",
          "type": "bytes32"
        },
        {
          "internalType": "address",
          "name": "account",
          "type": "address"
        }
      ],
      "name": "grantRole",
      "outputs": [],
      "stateMutability": "nonpayable",
      "type": "function"
    },
    {
      "inputs": [
        {
          "internalType": "bytes32",
          "name": "role",
          "type": "bytes32"
        },
        {
          "internalType": "address",
          "name": "account",
          "type": "address"
        }
      ],
      "name": "hasRole",
      "outputs": [
        {
          "internalType": "bool",
          "name": "",
          "type": "bool"
        }
      ],
      "stateMutability": "view",
      "type": "function"
    },
    {
      "inputs": [],
      "name": "stopped",
      "outputs": [
        {
          "internalType": "bool",
          "name": "",
          "type": "bool"
        }
      ],
      "stateMutability": "view",
      "type": "function"
    },
    {
      "inputs": [
        {
          "internalType": "bytes4",
          "name": "interfaceId",
          "type": "bytes4"
        }
      ],
      "name": "supportsInterface",
      "outputs": [
        {
          "internalType": "bool",
          "name": "",
          "type": "bool"
        }
      ],
      "stateMutability": "view",
      "type": "function"
    },
    {
      "inputs": [],
      "name": "token",
      "outputs": [
        {
          "internalType": "contract IERC20",
          "name": "",
          "type": "address"
        }
      ],
      "stateMutability": "view",
      "type": "function"
    },
    {
      "inputs": [],
      "name": "hasReferee",
      "outputs": [
        {
          "internalType": "bool",
          "name": "",
          "type": "bool"
        }
      ],
      "stateMutability": "view",
      "type": "function"
    },
    {
      "inputs": [],
      "name": "version",
      "outputs": [
        {
          "internalType": "string",
          "name": "",
          "type": "string"
        }
      ],
      "stateMutability": "pure",
      "type": "function"
    },
    {
      "inputs": [],
      "name": "getTokenBalance",
      "outputs": [
        {
          "internalType": "uint256",
          "name": "",
          "type": "uint256"
        }
      ],
      "stateMutability": "view",
      "type": "function"
    },
    {
      "inputs": [
        {
          "internalType": "address",
          "name": "account",
          "type": "address"
        }
      ],
      "name": "addReferee",
      "outputs": [
        {
          "internalType": "bool",
          "name": "",
          "type": "bool"
        }
      ],
      "stateMutability": "nonpayable",
      "type": "function"
    },
    {
      "inputs": [
        {
          "internalType": "string",
          "name": "name",
          "type": "string"
        }
      ],
      "name": "existsBetOption",
      "outputs": [
        {
          "internalType": "bool",
          "name": "",
          "type": "bool"
        }
      ],
      "stateMutability": "view",
      "type": "function"
    },
    {
      "inputs": [],
      "name": "listBetOptions",
      "outputs": [
        {
          "components": [
            {
              "internalType": "string",
              "name": "name",
              "type": "string"
            },
            {
              "internalType": "uint256",
              "name": "id",
              "type": "uint256"
            }
          ],
          "internalType": "struct ISafeBet.BetOption[]",
          "name": "",
          "type": "tuple[]"
        }
      ],
      "stateMutability": "view",
      "type": "function"
    },
    {
      "inputs": [
        {
          "internalType": "string",
          "name": "name",
          "type": "string"
        }
      ],
      "name": "addBetOption",
      "outputs": [
        {
          "internalType": "uint256",
          "name": "",
          "type": "uint256"
        }
      ],
      "stateMutability": "nonpayable",
      "type": "function"
    },
    {
      "inputs": [
        {
          "internalType": "bytes32",
          "name": "role",
          "type": "bytes32"
        },
        {
          "internalType": "address",
          "name": "account",
          "type": "address"
        }
      ],
      "name": "renounceRole",
      "outputs": [],
      "stateMutability": "nonpayable",
      "type": "function"
    },
    {
      "inputs": [
        {
          "internalType": "bytes32",
          "name": "role",
          "type": "bytes32"
        },
        {
          "internalType": "address",
          "name": "account",
          "type": "address"
        }
      ],
      "name": "revokeRole",
      "outputs": [],
      "stateMutability": "nonpayable",
      "type": "function"
    },
    {
      "inputs": [],
      "name": "stop",
      "outputs": [],
      "stateMutability": "nonpayable",
      "type": "function"
    }
  ],
  "bytecode": "0x60806040523480156200001157600080fd5b506040516200280e3803806200280e833981810160405281019062000037919062000268565b6000600160006101000a81548160ff021916908315150217905550620000766000801b6200006a620000d860201b60201c565b620000e060201b60201c565b806001806101000a81548173ffffffffffffffffffffffffffffffffffffffff021916908373ffffffffffffffffffffffffffffffffffffffff1602179055506000600360006101000a81548160ff02191690831515021790555050620002e2565b600033905090565b620000f28282620000f660201b60201c565b5050565b620001088282620001e760201b60201c565b620001e357600160008084815260200190815260200160002060000160008373ffffffffffffffffffffffffffffffffffffffff1673ffffffffffffffffffffffffffffffffffffffff16815260200190815260200160002060006101000a81548160ff02191690831515021790555062000188620000d860201b60201c565b73ffffffffffffffffffffffffffffffffffffffff168173ffffffffffffffffffffffffffffffffffffffff16837f2f8788117e7eff1d82e926ec794901d17c78024a50270940304540a733656f0d60405160405180910390a45b5050565b600080600084815260200190815260200160002060000160008373ffffffffffffffffffffffffffffffffffffffff1673ffffffffffffffffffffffffffffffffffffffff16815260200190815260200160002060009054906101000a900460ff16905092915050565b6000815190506200026281620002c8565b92915050565b6000602082840312156200027b57600080fd5b60006200028b8482850162000251565b91505092915050565b6000620002a182620002a8565b9050919050565b600073ffffffffffffffffffffffffffffffffffffffff82169050919050565b620002d38162000294565b8114620002df57600080fd5b50565b61251c80620002f26000396000f3fe608060405234801561001057600080fd5b506004361061012c5760003560e01c806391d14854116100ad578063d0a3103811610071578063d0a3103814610336578063d547741f14610366578063e670053514610382578063faae27d4146103a0578063fc0c546a146103d05761012c565b806391d1485414610269578063a217fddf14610299578063a7039843146102b7578063af74bc14146102e7578063b857a55b146103055761012c565b806353b20d79116100f457806353b20d79146101d357806354fd4d50146101f157806375b238fc1461020f57806375f12b211461022d57806382b2e2571461024b5761012c565b806301ffc9a71461013157806307da68f514610161578063248a9ca31461016b5780632f2ff15d1461019b57806336568abe146101b7575b600080fd5b61014b600480360381019061014691906117f0565b6103ee565b6040516101589190611f0c565b60405180910390f35b610169610468565b005b6101856004803603810190610180919061178b565b61050c565b6040516101929190611f27565b60405180910390f35b6101b560048036038101906101b091906117b4565b61052b565b005b6101d160048036038101906101cc91906117b4565b610554565b005b6101db61061d565b6040516101e89190611f0c565b60405180910390f35b6101f9610634565b6040516102069190611f5d565b60405180910390f35b610217610671565b6040516102249190611f27565b60405180910390f35b610235610695565b6040516102429190611f0c565b60405180910390f35b6102536106ac565b604051610260919061210f565b60405180910390f35b610283600480360381019061027e91906117b4565b61075c565b6040516102909190611f0c565b60405180910390f35b6102a16107c6565b6040516102ae9190611f27565b60405180910390f35b6102d160048036038101906102cc9190611762565b6107cd565b6040516102de9190611f0c565b60405180910390f35b6102ef61096a565b6040516102fc9190611f27565b60405180910390f35b61031f600480360381019061031a919061189f565b61098e565b60405161032d929190611f7f565b60405180910390f35b610350600480360381019061034b919061185e565b610a4a565b60405161035d9190611f0c565b60405180910390f35b610380600480360381019061037b91906117b4565b610a85565b005b61038a610b30565b6040516103979190611eea565b60405180910390f35b6103ba60048036038101906103b59190611819565b610c2b565b6040516103c7919061210f565b60405180910390f35b6103d8610e4e565b6040516103e59190611f42565b60405180910390f35b60007f7965db0b000000000000000000000000000000000000000000000000000000007bffffffffffffffffffffffffffffffffffffffffffffffffffffffff1916827bffffffffffffffffffffffffffffffffffffffffffffffffffffffff19161480610461575061046082610e72565b5b9050919050565b61047c6000801b610477610edc565b61075c565b6104bb576040517f08c379a00000000000000000000000000000000000000000000000000000000081526004016104b2906120cf565b60405180910390fd5b6104c361061d565b610502576040517f08c379a00000000000000000000000000000000000000000000000000000000081526004016104f99061204f565b60405180910390fd5b61050a610ee4565b565b6000806000838152602001908152602001600020600101549050919050565b6105348261050c565b61054581610540610edc565b610f86565b61054f8383611023565b505050565b6000801b82141561059a576040517f08c379a000000000000000000000000000000000000000000000000000000000815260040161059190611fcf565b60405180910390fd5b6105a2610edc565b73ffffffffffffffffffffffffffffffffffffffff168173ffffffffffffffffffffffffffffffffffffffff161461060f576040517f08c379a000000000000000000000000000000000000000000000000000000000815260040161060690611fef565b60405180910390fd5b6106198282611103565b5050565b6000600360009054906101000a900460ff16905090565b60606040518060400160405280600281526020017f7630000000000000000000000000000000000000000000000000000000000000815250905090565b7fa49807205ce4d355092ef5a8a18f56e8913cf4a201fbe287825b095693c2177581565b6000600160009054906101000a900460ff16905090565b600060018054906101000a900473ffffffffffffffffffffffffffffffffffffffff1673ffffffffffffffffffffffffffffffffffffffff166370a08231306040518263ffffffff1660e01b81526004016107079190611ecf565b60206040518083038186803b15801561071f57600080fd5b505afa158015610733573d6000803e3d6000fd5b505050506040513d601f19601f8201168201806040525081019061075791906118c8565b905090565b600080600084815260200190815260200160002060000160008373ffffffffffffffffffffffffffffffffffffffff1673ffffffffffffffffffffffffffffffffffffffff16815260200190815260200160002060009054906101000a900460ff16905092915050565b6000801b81565b60006107e36000801b6107de610edc565b61075c565b610822576040517f08c379a0000000000000000000000000000000000000000000000000000000008152600401610819906120cf565b60405180910390fd5b61082a61061d565b1561086a576040517f08c379a0000000000000000000000000000000000000000000000000000000008152600401610861906120af565b60405180910390fd5b610872610695565b156108b2576040517f08c379a00000000000000000000000000000000000000000000000000000000081526004016108a99061208f565b60405180910390fd5b6108dc7fa49807205ce4d355092ef5a8a18f56e8913cf4a201fbe287825b095693c217758361075c565b1561091c576040517f08c379a00000000000000000000000000000000000000000000000000000000081526004016109139061206f565b60405180910390fd5b6109467faef88082b8671e875d97d0d6c81d06fb9e76f97b3ad7523a55a378e5298aeeee8361052b565b6001600360006101000a81548160ff02191690831515021790555060019050919050565b7faef88082b8671e875d97d0d6c81d06fb9e76f97b3ad7523a55a378e5298aeeee81565b6002818154811061099e57600080fd5b90600052602060002090600202016000915090508060000180546109c1906123ba565b80601f01602080910402602001604051908101604052809291908181526020018280546109ed906123ba565b8015610a3a5780601f10610a0f57610100808354040283529160200191610a3a565b820191906000526020600020905b815481529060010190602001808311610a1d57829003601f168201915b5050505050908060010154905082565b600080600483604051610a5d9190611e7e565b9081526020016040518091039020541415610a7b5760009050610a80565b600190505b919050565b610a8e8261050c565b610a9f81610a9a610edc565b610f86565b6000801b831415610b2157610ab2610edc565b73ffffffffffffffffffffffffffffffffffffffff168273ffffffffffffffffffffffffffffffffffffffff161415610b20576040517f08c379a0000000000000000000000000000000000000000000000000000000008152600401610b179061202f565b60405180910390fd5b5b610b2b8383611186565b505050565b60606002805480602002602001604051908101604052809291908181526020016000905b82821015610c225783829060005260206000209060020201604051806040016040529081600082018054610b87906123ba565b80601f0160208091040260200160405190810160405280929190818152602001828054610bb3906123ba565b8015610c005780601f10610bd557610100808354040283529160200191610c00565b820191906000526020600020905b815481529060010190602001808311610be357829003601f168201915b5050505050815260200160018201548152505081526020019060010190610b54565b50505050905090565b6000610c416000801b610c3c610edc565b61075c565b610c80576040517f08c379a0000000000000000000000000000000000000000000000000000000008152600401610c77906120cf565b60405180910390fd5b610c88610695565b15610cc8576040517f08c379a0000000000000000000000000000000000000000000000000000000008152600401610cbf9061208f565b60405180910390fd5b610d1583838080601f016020809104026020016040519081016040528093929190818152602001838380828437600081840152601f19601f82011690508083019250505050505050610a4a565b15610d55576040517f08c379a0000000000000000000000000000000000000000000000000000000008152600401610d4c9061200f565b60405180910390fd5b60006002805490509050610d6761158a565b84848080601f016020809104026020016040519081016040528093929190818152602001838380828437600081840152601f19601f8201169050808301925050505050505081600001819052508181602001818152505060028190806001815401808255809150506001900390600052602060002090600202016000909190919091506000820151816000019080519060200190610e069291906115a4565b50602082015181600101555050600060028054905090508060048787604051610e30929190611e65565b90815260200160405180910390208190555080935050505092915050565b60018054906101000a900473ffffffffffffffffffffffffffffffffffffffff1681565b60007f01ffc9a7000000000000000000000000000000000000000000000000000000007bffffffffffffffffffffffffffffffffffffffffffffffffffffffff1916827bffffffffffffffffffffffffffffffffffffffffffffffffffffffff1916149050919050565b600033905090565b610eec610695565b15610f2c576040517f08c379a0000000000000000000000000000000000000000000000000000000008152600401610f239061208f565b60405180910390fd5b60018060006101000a81548160ff0219169083151502179055507f55c4adf1f68f084b809304657594a92ba835ada8d3b5340955bf05746723c05b610f6f610edc565b604051610f7c9190611ecf565b60405180910390a1565b610f90828261075c565b61101f57610fb58173ffffffffffffffffffffffffffffffffffffffff1660146111af565b610fc38360001c60206111af565b604051602001610fd4929190611e95565b6040516020818303038152906040526040517f08c379a00000000000000000000000000000000000000000000000000000000081526004016110169190611f5d565b60405180910390fd5b5050565b61102d828261075c565b6110ff57600160008084815260200190815260200160002060000160008373ffffffffffffffffffffffffffffffffffffffff1673ffffffffffffffffffffffffffffffffffffffff16815260200190815260200160002060006101000a81548160ff0219169083151502179055506110a4610edc565b73ffffffffffffffffffffffffffffffffffffffff168173ffffffffffffffffffffffffffffffffffffffff16837f2f8788117e7eff1d82e926ec794901d17c78024a50270940304540a733656f0d60405160405180910390a45b5050565b61110b610edc565b73ffffffffffffffffffffffffffffffffffffffff168173ffffffffffffffffffffffffffffffffffffffff1614611178576040517f08c379a000000000000000000000000000000000000000000000000000000000815260040161116f906120ef565b60405180910390fd5b61118282826114a9565b5050565b61118f8261050c565b6111a08161119b610edc565b610f86565b6111aa83836114a9565b505050565b6060600060028360026111c29190612252565b6111cc91906121fc565b67ffffffffffffffff81111561120b577f4e487b7100000000000000000000000000000000000000000000000000000000600052604160045260246000fd5b6040519080825280601f01601f19166020018201604052801561123d5781602001600182028036833780820191505090505b5090507f30000000000000000000000000000000000000000000000000000000000000008160008151811061129b577f4e487b7100000000000000000000000000000000000000000000000000000000600052603260045260246000fd5b60200101907effffffffffffffffffffffffffffffffffffffffffffffffffffffffffffff1916908160001a9053507f780000000000000000000000000000000000000000000000000000000000000081600181518110611325577f4e487b7100000000000000000000000000000000000000000000000000000000600052603260045260246000fd5b60200101907effffffffffffffffffffffffffffffffffffffffffffffffffffffffffffff1916908160001a905350600060018460026113659190612252565b61136f91906121fc565b90505b600181111561145b577f3031323334353637383961626364656600000000000000000000000000000000600f8616601081106113d7577f4e487b7100000000000000000000000000000000000000000000000000000000600052603260045260246000fd5b1a60f81b828281518110611414577f4e487b7100000000000000000000000000000000000000000000000000000000600052603260045260246000fd5b60200101907effffffffffffffffffffffffffffffffffffffffffffffffffffffffffffff1916908160001a905350600485901c94508061145490612390565b9050611372565b506000841461149f576040517f08c379a000000000000000000000000000000000000000000000000000000000815260040161149690611faf565b60405180910390fd5b8091505092915050565b6114b3828261075c565b1561158657600080600084815260200190815260200160002060000160008373ffffffffffffffffffffffffffffffffffffffff1673ffffffffffffffffffffffffffffffffffffffff16815260200190815260200160002060006101000a81548160ff02191690831515021790555061152b610edc565b73ffffffffffffffffffffffffffffffffffffffff168173ffffffffffffffffffffffffffffffffffffffff16837ff6391f5c32d9c69d2a47ea670b442974b53935d1edc7fd64eb21e047a839171b60405160405180910390a45b5050565b604051806040016040528060608152602001600081525090565b8280546115b0906123ba565b90600052602060002090601f0160209004810192826115d25760008555611619565b82601f106115eb57805160ff1916838001178555611619565b82800160010185558215611619579182015b828111156116185782518255916020019190600101906115fd565b5b509050611626919061162a565b5090565b5b8082111561164357600081600090555060010161162b565b5090565b600061165a6116558461215b565b61212a565b90508281526020810184848401111561167257600080fd5b61167d84828561234e565b509392505050565b6000813590506116948161248a565b92915050565b6000813590506116a9816124a1565b92915050565b6000813590506116be816124b8565b92915050565b60008083601f8401126116d657600080fd5b8235905067ffffffffffffffff8111156116ef57600080fd5b60208301915083600182028301111561170757600080fd5b9250929050565b600082601f83011261171f57600080fd5b813561172f848260208601611647565b91505092915050565b600081359050611747816124cf565b92915050565b60008151905061175c816124cf565b92915050565b60006020828403121561177457600080fd5b600061178284828501611685565b91505092915050565b60006020828403121561179d57600080fd5b60006117ab8482850161169a565b91505092915050565b600080604083850312156117c757600080fd5b60006117d58582860161169a565b92505060206117e685828601611685565b9150509250929050565b60006020828403121561180257600080fd5b6000611810848285016116af565b91505092915050565b6000806020838503121561182c57600080fd5b600083013567ffffffffffffffff81111561184657600080fd5b611852858286016116c4565b92509250509250929050565b60006020828403121561187057600080fd5b600082013567ffffffffffffffff81111561188a57600080fd5b6118968482850161170e565b91505092915050565b6000602082840312156118b157600080fd5b60006118bf84828501611738565b91505092915050565b6000602082840312156118da57600080fd5b60006118e88482850161174d565b91505092915050565b60006118fd8383611e0a565b905092915050565b61190e816122ac565b82525050565b600061191f8261219b565b61192981856121be565b93508360208202850161193b8561218b565b8060005b85811015611977578484038952815161195885826118f1565b9450611963836121b1565b925060208a0199505060018101905061193f565b50829750879550505050505092915050565b611992816122be565b82525050565b6119a1816122ca565b82525050565b6119b08161232a565b82525050565b60006119c283856121f1565b93506119cf83858461234e565b82840190509392505050565b60006119e6826121a6565b6119f081856121cf565b9350611a0081856020860161235d565b611a0981612479565b840191505092915050565b6000611a1f826121a6565b611a2981856121e0565b9350611a3981856020860161235d565b611a4281612479565b840191505092915050565b6000611a58826121a6565b611a6281856121f1565b9350611a7281856020860161235d565b80840191505092915050565b6000611a8b6020836121e0565b91507f537472696e67733a20686578206c656e67746820696e73756666696369656e746000830152602082019050919050565b6000611acb601b836121e0565b91507f63616e206e6f742072656e6f756e636520726f6c65206f776e657200000000006000830152602082019050919050565b6000611b0b6020836121e0565b91507f63616e206f6e6c792072656e6f756e636520726f6c657320666f722073656c666000830152602082019050919050565b6000611b4b601a836121e0565b91507f626574206f7074696f6e7320616c7265616479206578697374730000000000006000830152602082019050919050565b6000611b8b6025836121e0565b91507f63616e206e6f74207265766f6b6520796f757273656c6620696e20726f6c652060008301527f6f776e65720000000000000000000000000000000000000000000000000000006020830152604082019050919050565b6000611bf16014836121e0565b91507f646f6573206e6f742068617320726566657265650000000000000000000000006000830152602082019050919050565b6000611c316008836121e0565b91507f69732061646d696e0000000000000000000000000000000000000000000000006000830152602082019050919050565b6000611c716012836121e0565b91507f53746f707061626c653a2073746f7070656400000000000000000000000000006000830152602082019050919050565b6000611cb1600b836121e0565b91507f68617320726566657265650000000000000000000000000000000000000000006000830152602082019050919050565b6000611cf16017836121f1565b91507f416363657373436f6e74726f6c3a206163636f756e74200000000000000000006000830152601782019050919050565b6000611d316009836121e0565b91507f6e6f74206f776e657200000000000000000000000000000000000000000000006000830152602082019050919050565b6000611d716011836121f1565b91507f206973206d697373696e6720726f6c65200000000000000000000000000000006000830152601182019050919050565b6000611db1602f836121e0565b91507f416363657373436f6e74726f6c3a2063616e206f6e6c792072656e6f756e636560008301527f20726f6c657320666f722073656c6600000000000000000000000000000000006020830152604082019050919050565b60006040830160008301518482036000860152611e2782826119db565b9150506020830151611e3c6020860182611e47565b508091505092915050565b611e5081612320565b82525050565b611e5f81612320565b82525050565b6000611e728284866119b6565b91508190509392505050565b6000611e8a8284611a4d565b915081905092915050565b6000611ea082611ce4565b9150611eac8285611a4d565b9150611eb782611d64565b9150611ec38284611a4d565b91508190509392505050565b6000602082019050611ee46000830184611905565b92915050565b60006020820190508181036000830152611f048184611914565b905092915050565b6000602082019050611f216000830184611989565b92915050565b6000602082019050611f3c6000830184611998565b92915050565b6000602082019050611f5760008301846119a7565b92915050565b60006020820190508181036000830152611f778184611a14565b905092915050565b60006040820190508181036000830152611f998185611a14565b9050611fa86020830184611e56565b9392505050565b60006020820190508181036000830152611fc881611a7e565b9050919050565b60006020820190508181036000830152611fe881611abe565b9050919050565b6000602082019050818103600083015261200881611afe565b9050919050565b6000602082019050818103600083015261202881611b3e565b9050919050565b6000602082019050818103600083015261204881611b7e565b9050919050565b6000602082019050818103600083015261206881611be4565b9050919050565b6000602082019050818103600083015261208881611c24565b9050919050565b600060208201905081810360008301526120a881611c64565b9050919050565b600060208201905081810360008301526120c881611ca4565b9050919050565b600060208201905081810360008301526120e881611d24565b9050919050565b6000602082019050818103600083015261210881611da4565b9050919050565b60006020820190506121246000830184611e56565b92915050565b6000604051905081810181811067ffffffffffffffff821117156121515761215061244a565b5b8060405250919050565b600067ffffffffffffffff8211156121765761217561244a565b5b601f19601f8301169050602081019050919050565b6000819050602082019050919050565b600081519050919050565b600081519050919050565b6000602082019050919050565b600082825260208201905092915050565b600082825260208201905092915050565b600082825260208201905092915050565b600081905092915050565b600061220782612320565b915061221283612320565b9250827fffffffffffffffffffffffffffffffffffffffffffffffffffffffffffffffff03821115612247576122466123ec565b5b828201905092915050565b600061225d82612320565b915061226883612320565b9250817fffffffffffffffffffffffffffffffffffffffffffffffffffffffffffffffff04831182151516156122a1576122a06123ec565b5b828202905092915050565b60006122b782612300565b9050919050565b60008115159050919050565b6000819050919050565b60007fffffffff0000000000000000000000000000000000000000000000000000000082169050919050565b600073ffffffffffffffffffffffffffffffffffffffff82169050919050565b6000819050919050565b60006123358261233c565b9050919050565b600061234782612300565b9050919050565b82818337600083830152505050565b60005b8381101561237b578082015181840152602081019050612360565b8381111561238a576000848401525b50505050565b600061239b82612320565b915060008214156123af576123ae6123ec565b5b600182039050919050565b600060028204905060018216806123d257607f821691505b602082108114156123e6576123e561241b565b5b50919050565b7f4e487b7100000000000000000000000000000000000000000000000000000000600052601160045260246000fd5b7f4e487b7100000000000000000000000000000000000000000000000000000000600052602260045260246000fd5b7f4e487b7100000000000000000000000000000000000000000000000000000000600052604160045260246000fd5b6000601f19601f8301169050919050565b612493816122ac565b811461249e57600080fd5b50565b6124aa816122ca565b81146124b557600080fd5b50565b6124c1816122d4565b81146124cc57600080fd5b50565b6124d881612320565b81146124e357600080fd5b5056fea26469706673582212203653cfa27dc2207c0952023719c9b40182fe113dd08204f22e957f0bcefb6ed864736f6c63430008000033",
  "immutableReferences": {},
  "source": "// SPDX-License-Identifier: MIT\npragma solidity ^0.8.0;\n\n\n/// @title SafeBet\n/// @author Bruno Pedrazza\n\n// AccessControl.sol :  https://github.com/OpenZeppelin/openzeppelin-contracts/blob/v4.1.0/contracts/access/AccessControl.sol\n// Pausable.sol :       https://github.com/OpenZeppelin/openzeppelin-contracts/blob/v4.1.0/contracts/security/Pausable.sol\nimport \"@openzeppelin/contracts/token/ERC20/ERC20.sol\";\nimport \"@openzeppelin/contracts/access/AccessControl.sol\";\nimport \"./ISafeBet.sol\";\nimport \"./Stoppable.sol\";\n\n/**\n * @dev SafeBet\n *\n * Author: Bruno Pedrazza\n *\n * It uses [Open Zeppelin Contracts]\n * (https://github.com/OpenZeppelin/openzeppelin-contracts/blob/v4.1.0/)\n *\n */\ncontract SafeBet is AccessControl, ISafeBet, Stoppable {\n  address private constant ZERO_ADDRESS = address(0);\n  bytes32 private constant NULL_HASH = bytes32(0);\n\n  bytes32 public constant REFEREE_ROLE = keccak256(\"REFEREE_ROLE\");\n  bytes32 public constant ADMIN_ROLE = keccak256(\"ADMIN_ROLE\");\n\n  IERC20 public token;\n\n  BetOption[] public betOptions;\n  bool private _hasReferee;\n\n  mapping(string => uint256) private betOptionIndex;\n\n  /**\n   * @dev Function called only when the smart contract is deployed.\n   *\n   * Parameters:\n   * - address tokenAddress - address of the token to be used to bet and receive claims\n   *\n   * Actions:\n   * - the transaction's sender will be added in the DEFAULT_ADMIN_ROLE.\n   * - the token will be defined by the parameter tokenAddress\n   */\n  constructor(address tokenAddress) {\n    _setupRole(DEFAULT_ADMIN_ROLE, _msgSender());\n    token = IERC20(tokenAddress);\n    _hasReferee = false;\n  }\n\n  /**\n   * @dev Returns true if the contract has some account with referee role, and false otherwise.\n   */\n  function hasReferee() public view virtual returns (bool) {\n      return _hasReferee;\n  }\n\n  /**\n   * @dev Modifier to make a function callable only when the contract does not have a referee.\n   *\n   * Requirements:\n   *\n   * - The contract must not have an account with referee role\n   */\n  modifier whenNotHasReferee() {\n      require(!hasReferee(), \"has referee\");\n      _;\n  }\n\n  /**\n   * @dev Modifier to make a function callable only when the contract has a referee.\n   *\n   * Requirements:\n   *\n   * - The contract must have a referee.\n   */\n  modifier whenHasReferee() {\n      require(hasReferee(), \"does not has referee\");\n      _;\n  }\n\n  /**\n   * @dev Modifier which verifies if the caller is an owner,\n   * it means he has the role `DEFAULT_ADMIN_ROLE`.\n   *\n   * The role `DEFAULT_ADMIN_ROLE` is defined by Open Zeppelin's AccessControl smart contract.\n   *\n   * By default (setted in the constructor) the account which deployed this smart contract is in this role.\n   *\n   * This owner can add / remove other owners.\n   */\n  modifier onlyOwner() {\n    require(hasRole(DEFAULT_ADMIN_ROLE, _msgSender()), \"not owner\");\n    _;\n  }\n\n  /**\n   * @dev Modifier which verifies if the caller is a referee,\n   * it means he has the role `REFEREE_ROLE`.\n   *\n   * Role REFEREE are referred to its `bytes32` identifier,\n   * defined in the `public constant` called REFEREE_ROLE.\n   * It should be exposed in the external API and be unique.\n   *\n   * Role REFEREE is used to define which bet option is the winner one.\n   * This role is responsible for enabling the user's claims.\n   */\n  modifier onlyReferee() {\n    require(hasRole(REFEREE_ROLE, _msgSender()), \"not referee\");\n    _;\n  }\n\n  /**\n   * @dev Modifier which verifies if the caller is a admin,\n   * it means he has the role `ADMIN_ROLE`.\n   *\n   * Role ADMIN are referred to its `bytes32` identifier,\n   * defined in the `public constant` called ADMIN_ROLE.\n   * It should be exposed in the external API and be unique.\n   *\n   * Role ADMIN is used to add/remove bet options.\n   */\n  modifier onlyAdmin() {\n    require(hasRole(ADMIN_ROLE, _msgSender()), \"not admin\");\n    _;\n  }\n\n  /**\n   * @dev Function which returns the safebet's contract version.\n   *\n   * This is a fixed value define in source code.\n   *\n   * Parameters: none\n   *\n   * Returns: string\n   */\n  function version() external pure override returns (string memory) {\n    return \"v0\";\n  }\n\n  /**\n   * @dev Private function to compare two strings\n   * and returns `true` if the strings are equal,\n   * otherwise it returns false.\n   *\n   * Parameters: stringA, stringB\n   *\n   * Returns: bool\n   */\n  function compareStrings(string memory a, string memory b)\n    private\n    pure\n    returns (bool)\n  {\n    return (keccak256(abi.encodePacked((a))) == keccak256(abi.encodePacked((b))));\n  }\n\n  /**\n   * @dev Returns token balance.\n   *\n   * Parameters: none\n   *\n   * Returns: integer amount of tokens in this contract\n   *\n   */\n  function getTokenBalance() external view override returns (uint256) {\n    return token.balanceOf(address(this));\n  }\n\n  /**\n   * @dev This function add an address in the `REFEREE_ROLE`.\n   *\n   * Only owner can call it.\n   * The contract must not have a referee.\n   *\n   * Can not be called if the contract is paused.\n   * This role can not be revoked by the owner.\n   * Only one account can have a referee role.\n   *\n   * Parameters: address of referee to be added\n   *\n   * Returns: bool - true if it is sucessful\n   *\n   */\n  function addReferee(address account)\n    external\n    onlyOwner\n    whenNotHasReferee\n    whenNotStopped\n    returns (bool)\n  {\n    require(!hasRole(ADMIN_ROLE, account), \"is admin\");\n    grantRole(REFEREE_ROLE, account);\n    _hasReferee = true;\n    return true;\n  }\n\n  /**\n   * @dev Returns if a bet option is in the list of bet options.\n   *\n   * Parameters: string name of bet option\n   *\n   * Returns: boolean true if it is in the list\n   *\n   */\n  function existsBetOption(string memory name)\n    public\n    view\n    override\n    returns (bool)\n  {\n    if (betOptionIndex[name] == 0) return false;\n    else return true;\n  }\n\n  /**\n   * @dev List of bet options that are available to bet.\n   *\n   * Parameters: none\n   *\n   * Returns: an array of bet options\n   *\n   */\n  function listBetOptions() \n    external \n    view \n    override \n    returns (BetOption[] memory) \n  {\n    return betOptions;\n  }\n\n  function addBetOption(\n    string calldata name\n  ) external override onlyOwner whenNotStopped returns (uint256) {\n    require(!existsBetOption(name), \"bet options already exists\");\n\n    uint256 len = betOptions.length;\n    BetOption memory b;\n    b.name = name;\n    b.id = len;\n    betOptions.push(b);\n    uint256 index = betOptions.length;\n    betOptionIndex[name] = index;\n    return (index);\n  }\n\n  /**\n   * @dev This function allows a user to renounce a role\n   *\n   * Parameters: bytes32 role, address account\n   *\n   * Returns: none\n   *\n   * Requirements:\n   *\n   * - An owner can not renounce the role DEFAULT_ADMIN_ROLE.\n   * - Can only renounce roles for your own account.\n   *\n   */\n  function renounceRole(bytes32 role, address account) public virtual override {\n    require(role != DEFAULT_ADMIN_ROLE, \"can not renounce role owner\");\n    require(account == _msgSender(), \"can only renounce roles for self\");\n    super.renounceRole(role, account);\n  }\n\n  /**\n   * @dev This function allows to revoke a role\n   *\n   * Parameters: bytes32 role, address account\n   *\n   * Returns: none\n   *\n   * Requirements:\n   *\n   * - An owner can not revoke yourself in the role DEFAULT_ADMIN_ROLE.\n   *\n   */\n  function revokeRole(bytes32 role, address account)\n    public\n    virtual\n    override\n    onlyRole(getRoleAdmin(role))\n  {\n    if (role == DEFAULT_ADMIN_ROLE) {\n      require(account != _msgSender(), \"can not revoke yourself in role owner\");\n    }\n    super.revokeRole(role, account);\n  }\n\n  /**\n   * @dev This function stops the contract.\n   *\n   * Only owner can call it.\n   *\n   * Parameters: none\n   *\n   * Returns: none\n   *\n   * Requirements:\n   *\n   * - The contract must not be stopped.\n   * - The contract must have a referee.\n   *\n   */\n  function stop() external \n    onlyOwner\n    whenHasReferee\n  {\n    /**\n     * @dev See {Stoppable-_stop}.\n     *\n     * Requirements:\n     *\n     * - The contract must not be stopped.\n     */\n    _stop();\n  }\n}\n",
  "sourcePath": "/Users/pedrazza/code/mystuff/safebet-web3/web3/contracts/SafeBet.sol",
  "compiler": {
    "name": "solc",
    "version": "0.8.0+commit.c7dfd78e.Emscripten.clang"
  },
  "schemaVersion": "3.4.6",
  "updatedAt": "2022-04-11T01:15:31.934Z",
  "devdoc": {
    "details": "SafeBet Author: Bruno Pedrazza It uses [Open Zeppelin Contracts] (https://github.com/OpenZeppelin/openzeppelin-contracts/blob/v4.1.0/)",
    "kind": "dev",
    "methods": {
      "addReferee(address)": {
        "details": "This function add an address in the `REFEREE_ROLE`. Only owner can call it. The contract must not have a referee. Can not be called if the contract is paused. This role can not be revoked by the owner. Only one account can have a referee role. Parameters: address of referee to be added Returns: bool - true if it is sucessful"
      },
      "constructor": {
        "details": "Function called only when the smart contract is deployed. Parameters: - address tokenAddress - address of the token to be used to bet and receive claims Actions: - the transaction's sender will be added in the DEFAULT_ADMIN_ROLE. - the token will be defined by the parameter tokenAddress"
      },
      "existsBetOption(string)": {
        "details": "Returns if a bet option is in the list of bet options. Parameters: string name of bet option Returns: boolean true if it is in the list"
      },
      "getRoleAdmin(bytes32)": {
        "details": "Returns the admin role that controls `role`. See {grantRole} and {revokeRole}. To change a role's admin, use {_setRoleAdmin}."
      },
      "getTokenBalance()": {
        "details": "Returns token balance. Parameters: none Returns: integer amount of tokens in this contract"
      },
      "grantRole(bytes32,address)": {
        "details": "Grants `role` to `account`. If `account` had not been already granted `role`, emits a {RoleGranted} event. Requirements: - the caller must have ``role``'s admin role."
      },
      "hasReferee()": {
        "details": "Returns true if the contract has some account with referee role, and false otherwise."
      },
      "hasRole(bytes32,address)": {
        "details": "Returns `true` if `account` has been granted `role`."
      },
      "listBetOptions()": {
        "details": "List of bet options that are available to bet. Parameters: none Returns: an array of bet options"
      },
      "renounceRole(bytes32,address)": {
        "details": "This function allows a user to renounce a role Parameters: bytes32 role, address account Returns: none Requirements: - An owner can not renounce the role DEFAULT_ADMIN_ROLE. - Can only renounce roles for your own account."
      },
      "revokeRole(bytes32,address)": {
        "details": "This function allows to revoke a role Parameters: bytes32 role, address account Returns: none Requirements: - An owner can not revoke yourself in the role DEFAULT_ADMIN_ROLE."
      },
      "stop()": {
        "details": "This function stops the contract. Only owner can call it. Parameters: none Returns: none Requirements: - The contract must not be stopped. - The contract must have a referee."
      },
      "stopped()": {
        "details": "Returns true if the contract is stopped, and false otherwise."
      },
      "supportsInterface(bytes4)": {
        "details": "See {IERC165-supportsInterface}."
      },
      "version()": {
        "details": "Function which returns the safebet's contract version. This is a fixed value define in source code. Parameters: none Returns: string"
      }
    },
    "version": 1
  },
  "userdoc": {
    "kind": "user",
    "methods": {},
    "version": 1
  }
}